:020000040000FA
:0600000002125C0207E29F
:03002B00020F6C55
:03003300020E3189
:03004300020F2782
:0300530002072180
:03006B00020E176B
:1000830002077E0101FF01010503010F10FEFFCAF4
:100093001ACA1ACA1ACA1A86198019CA1AB728009C
:1000A3000000007B29000000000C0000000C000190
:1000B300FFFF00007A4400007A44303030232323CA
:1000C30023235F44726F70706564205061636B65B6
:1000D30074735F3D5F5F5F5F2023232323232A2AFB
:1000E3002A2A2A524F4F4D20412A2A2A2A2A2A2ACB
:1000F3002A2A2A524F4F4D20422A2A2A2A2A01020B
:10010300004A06000000BD06640002020008000069
:10011300050207051E02051E020A0A03B80B028028
:100123003E0102F1FF14965118000202060100B0CD
:10013300423BAAB83F0000003F8C906339AA0CA34E
:100143003A00941E3C8042633DCFFE753E157231EA
:100153003F0000803FF304353F8096184B2292D432
:100163003EDD9B2A3F04000040FFFF7F7FFFFF7FB0
:10017300FF010080341872313F1212A86046121238
:100183007B603DE9687008F618F618F618F62274D5
:100193008067F71201B0090909748067F722121208
:1001A3007B601D1212A87005191919801A12111AF1
:1001B300701F12112FC37003E66733191919400713
:1001C3001818182208080874FFF618F618F618F617
:1001D3002212112F60171212E7702192F01212F1FE
:1001E3007019501720F014080808090909E7F618D0
:1001F30019E7F61819E7F61819E7F6221212F16053
:10020300E6E869701F0808E62480F608E436F61865
:10021300547FB47F0CE654806007F6E418F618F6B2
:1002230022181822E9C6CC08C6CD08C6CE08C6CF08
:10023300C0E0E8C0E0EAC0E0EBC0E009E9F809E7A4
:10024300FA09E7FBE6F918E6F8C3EC98ED99EE9A9C
:10025300EBC2E7F5F0EFC2E795F0500E600CEBCF81
:10026300FBEACEFAE9CDF9E8CCF8EAA2E7D2E7FA5D
:10027300EB33FB13F5F0EEA2E7D2E7FEEF33FFC556
:10028300F013A2E730E601B313C5F0C3C0E0C0F03A
:100293007F00C39BFB605E9418600F401D14601ABF
:1002A300D0E023F9D0E0F80203828AF0E948600342
:1002B300D2F0E4AFF0FAF9F8803BEB30E40D89F0CB
:1002C300EA6003D2F0E4AFF0F9CAF8EB30E30D884B
:1002D300F0EF6002D2F0AFF0E4CAC9F8EB54076064
:1002E30014FBC3EA13FAE913F9E813F8EF13500206
:1002F300D2E0FFDBEDD0E0C0E030E739C3E49FFF9D
:10030300F5F0EC98FC42F0ED99FD42F0EE9AFE42D6
:10031300F0D0E0F9D0E0F8E5F0607AE923F9EE20D7
:10032300E742D8028067C3EF33FFEC33FCED33FDC4
:10033300EE33FE80EAEC28FCED39FDEE3AFED0E028
:1003430023F9D0E0F84002801BC3EE13FEED13FD4A
:10035300EC13FCEF135002D2E0FF08B800067F7FD6
:1003630074FF802EEF3350178CF020F00260100CD6
:10037300BC000C0DBD00080EBE000408E860DFE9F8
:1003830033E813FFEE2313FE4F4D4C8008E95480EE
:10039300FFE4FEFDFCEE33EF33F47004FCFD7E80DE
:1003A300D0E0FBD0E0FAD0E0F8D0E0CFC618CEC65C
:1003B30018CDC618CCC6F92212127B70041818186F
:1003C300221212A8700D74FFF61819F61819F618F0
:1003D30019F622E7548066F61212F1700F1212E733
:1003E30070F014F608F608F608F680D11212E770DA
:1003F3000CF608F608768008E6447F80EC1211328A
:10040300700C12111D60BFE65480F6E480BB12111C
:100413001D700519191980A5E869700C763F1876C7
:100423008018F618F6E8F922E6CDC0E018ECC0E033
:10043300E633CD33CDD313F6E719FCE7191933CCE3
:1004430033C3947F400ECD9D502408E65480F6E4D8
:1004530018F6800FF4043D14501408E6447FF61890
:100463007680E418F618F6D0E0FCD0E0FD22CCD379
:1004730013CCFD18E4C6CBC0E018E4C6CAC0E0083C
:1004830008ED08C633E613F618E433C675F003C364
:10049300CA97CA09CB97CB199C40047D08802EBD0F
:1004A300000302056416B6FF050606081618C3CA3C
:1004B30033CACB33CB33CA27CA09CB37CB193CC397
:1004C3007D08803E187D0820E75CC633C6CA33CA60
:1004D300CB33CB33DDF1D5F0EB30E77BCA97CA09D9
:1004E300CB974ACB199C406F4B7025E620E02180C7
:1004F30066187D08C3CA97CA09CB97CB199CD3C684
:1005030033C6CA33CACB33CB3350C9DDE7D5F0E1A9
:10051300D3E4C636C608C636C608C636C608C636C7
:10052300C61818188031C3CA97CA09CB97CB199C30
:10053300B34097C633C6CA33CACB33CB33DD34D5C6
:10054300F02EC6A2E0C640C8CA27CA09CB37194A4B
:1005530070BECB3CB480B90808E63308E633601FAD
:10056300181818D0E0FAD0E0FBD0E0FCD0E0FD2270
:10057300187D08CA27CA09CB37CB193CD38080130F
:10058300F618E4B67F11F618B6FF0EF618C6047017
:10059300D20808768080CAF618F618F680C50012CD
:1005A300127B604F1212A86012E7548066F6121194
:1005B3001A70111212E7703B090909F4F618F618BC
:1005C300F618F62212112F70151212F1080808609E
:1005D300EAE6447FF618768018E4F618F62212123B
:1005E300F160161212E77012E4F608F608F608E650
:1005F3005480F609090918181822EAC0E0EBC0E094
:10060300ECC0E0EDC0E0E687F0A4FBACF008E687C1
:10061300F0A42CFCE435F0FA1809E687F0A42C4B7F
:1006230060027401CA35F0FCE433FB09E687F0D2BB
:10063300F7A42CCB35F0FC1908E687F0A42BCC35B6
:10064300F0FBE433FD0819E687F0D2E7A42C4ACB8C
:1006530035F0CD3400FC09E687F0D2E7A42DCC3584
:10066300F0FDE433FA0918E687F0D2F7A42CCD3570
:10067300F0CA3400FC08E687F0D2E7D2F7A42ACC0C
:1006830035F07A7E20E70B0ACB33CBCD33CDCC3399
:10069300CC33CB3350147004ED30E00ED2F1E4CD03
:1006A3003DCDCC3CCC3B5005DA05C2F1EB547FC6C3
:1006B3003308E63392F0FBE73309E733C39A502D4F
:1006C3002B70190C0D4C4D70151806E608C33370CA
:1006D3000D20F10AA2F013F6E418800B4024E4F68F
:1006E30030F002768018F618F618F68024D33B14FF
:1006F300501074FFA2F013F6187680E418F618F67B
:10070300800FA2F013F618E63303F618ECF618ED93
:10071300F6D0E0FDD0E0FCD0E0FBD0E0FA22C0E070
:1007230074F2120B02A2AFE433FED2AFE5A7FFE5EA
:10073300A1F5085F5410600612230475A1EFE508C4
:100743005F5408600812230A75A1F78024E508A204
:10075300E092F0EFA2E082F05017906198E0F890F9
:100763000B9AE0C398A2D265D0335002E8F075A18A
:10077300FEEEA2E092AF7F01020BB9C0E074F21269
:100783000B02A2AFE433FED2AF9061A4E0F8759BF5
:1007930000E59158540860087591F712235280239D
:1007A300E59158541060087591EF1223588014E5B1
:1007B30091A2E092F0E8A2E082F05007E0C2E0F0FC
:1007C30012249C9061A3E0F8E5E9585404600E12EA
:1007D300247275E9FB906193E0A2E640F28092C037
:1007E300E074F2120B02A2AFE433FED2AF9061A524
:1007F300E0F8E5BF585404600675BFFB1224B40249
:100803000774C3E498F8E499F91208468026C3E410
:100813009AFAE49BFBE920E7E9120846E498F8E436
:1008230099F922C3E498F8E499F9120846E498F890
:10083300E499F9C3E49AFAE49BFB22EB20E7CFE9BE
:1008430020E7E0B90010BB0008E88AF084F8AAF0BA
:1008530022E4FBC8FA22EB70227B10C833C8C933E9
:10086300C9335007C39AC3DBF280069A50012ADBCF
:10087300EAC833F4C8C933F4C9FA2275F008E4C8E6
:1008830033C8C933C933C99AC99B5004C92AC93B60
:10089300D5F0ECFBC833F4C8E4C9FA221208DF2010
:1008A300F01430E72B74FFFCFBFA747F8022E4FC26
:1008B300FBFA7480801AB48008BC00F2BB00EF809E
:1008C3000F50EBF9E4C39AFAE49BFBE49CFCE49934
:1008D300C6CC18C6CB18C6CA18C6F922E4C9C608BE
:1008E300CAC608CBC6D3330308CCC63392F0C3942D
:1008F3007F402E94184019C9B90704CACBCC2250A3
:1009030025C309CA33CACB33CBCC33CC33D9F42276
:10091300F4600DC9CCC313CB13CBCA13CAD9F6CC1D
:1009230022E4FCFBFA2214FCFBFA22080808EAC0C2
:10093300E0EBC0E086F0E7A4FA180986F0E7A42A02
:10094300FA180986F0E7A42AFA180986F0E7A42A18
:10095300FA1986F0E7A4FBE5F02AFA190886F0E70E
:10096300A42BFBE5F03AFA190886F0E7A42BFBE584
:10097300F03AFA18180986F0E7A4C5F02BFBE43A1D
:10098300FA1908E7C5F0C6A426F6E5F03BFBE43AFE
:10099300FA1886F0E7A4F6E5F00826F6E43B08F635
:1009A300E43A08F6D0E0FBD0E0FA22080808E63083
:1009B300E71112116D1209C6080808C64480C6184B
:1009C300181822181818E9799EC608CAC608CBC693
:1009D30008CCC6C370207996CACBCC7019798ECB5C
:1009E300CC70137986CC700EF9802ACA33CACB3304
:1009F300CBCC33CC331930E7F2CCCBCA33501470A1
:100A030004EA30E00DE4CA3ACACB3BCBCC3CCC5031
:100A13000209C3E913C6CC182313C6CB18C6CA18D8
:100A2300C6F922E4CFC0E0E4CEC0E0E4CDC0E0E408
:100A3300CCC0E075F020C3E633F608E633F608E6EB
:100A430033F608E633F6181818EC33FCED33FDEEF5
:100A530033FEEF33FFC3EC9709ED9709EE9709EFE8
:100A630097191919400FFFEC97FC09ED97FD09EE53
:100A730097FE191906D5F0BEECF709EDF709EEF765
:100A830009EFF7191919D0E0FCD0E0FDD0E0FED052
:100A9300E0FF222518C582C0E0E51934FFC583C0F5
:100AA300E0E518C3958224F810AF08858319858281
:100AB300188008858319858218D2AFCEF0A3E5206C
:100AC300F0A37808E608F0A3DEFAEFF0A3E58124AB
:100AD300FAF8E608F0A3E608F0A3E608F0A308088E
:100AE300E608F0A3E608F0A315811581D0E0FED057
:100AF300E0F8158115811581E8C0E0EEC0E022C061
:100B0300D02518C582C0E0E51934FFC583C0E0E5F0
:100B130018C3958224F310AF088583198582188042
:100B230008858319858218D2AFC8F0A3E9F0A3EA38
:100B3300F0A3EBF0A37908E709F0A3D8FAECF0A34C
:100B4300EDF0A3EEF0A3EFF0A3D0E0F0A3D0E0F03C
:100B5300A3D0E0F0A3E520F0A3E5F0F0A322121266
:100B6300DCB90003020BA3E49003017863790F80DF
:100B730002F0A3D8FCD9FA901163AA82AB83900048
:100B83008678F779018015E493A3AC82AD838A82DA
:100B93008B83F0A3AA82AB838C828D83D8E9D9E7B8
:100BA3007582A8758389740412100B7582C07583CE
:100BB30027740012100B851983851882E0C0E0A307
:100BC300E0F9A3E0FAA3E0FBA37808E0F608A3DFCB
:100BD300FAE0FCA3E0FDA3E0FEA3E0FFA3E0C0E096
:100BE300A3E0C0E0A3E0F5D0A3E0F520A3E0A3F5E4
:100BF300F010AF08858319858218800885831985CD
:100C03008218D2AFD082D083D0E0F8D0E032E47340
:100C13000975F0108E1A8F1B85821F85831E851818
:100C230082851983E0CEA3E0CF851F82851E83EBE7
:100C3300C9EAC8EDCBECCAC3E833C8E933C9EA3320
:100C4300CAEB33CBC3EA9EF51DEB9FF51CB35004EF
:100C5300AB1CAA1DEC33CCED33CDD5F0DAAE1AAF15
:100C63001B2212127B601C1212A860171212F17061
:100C7300071212E77001D322C0D01212E77006D018
:100C8300D0B322C32233D0D0501430E0F6C3E7965A
:100C93000809E7960809E7960809E796B32220E0D2
:100CA300D5E6970809E6970809E6970809E697B392
:100CB30022D083D082ECC0E0EDC0E0E493A3FCE457
:100CC30093A3FDED4C600D120DD8EC24FFFCED3425
:100CD300FFFD80EFE493A3FCE493A3FDED4C600DD3
:100CE300120ED2EC24FFFCED34FFFD80EFD0E0FDCB
:100CF300D0E0FCE493A3C0E0E493C0E02212127BB3
:100D0300601B1212A860161212F170071212E7602C
:100D13000CB322C0D01212E77005D0D022C3223305
:100D2300D0D0501330E0EBC3E7960809E7960809E3
:100D3300E7960809E7962220E0E4E6970809E69794
:100D43000809E6970809E69722D083D082E9C0E034
:100D5300E493A3C386F0C5F095F0F908E493A38662
:100D6300F0C5F095F0700BE493A3C3994005E90433
:100D73008002A3E475F002A42582F582E5F03583B1
:100D8300F583D0E0F9E493A3C0E0E493C0E02285C7
:100D93001983851882E0A3FEE0A3F5207808E0A379
:100DA300F608DFFAE0A3FFE0A3C0E0E0A3C0E0E0C1
:100DB300A3C0E0E0A3C0E0E0A3C0E010AF088582D9
:100DC300188583198008858218858319D2AFD0834B
:100DD300D082021011C0E0C3E49396087401939685
:100DE30018400FE493667008087401936618700046
:100DF3007019A3A3C3E49396087401939618A3A34D
:100E0300400DD0E0D0E0D0E0020CF0A3A3A3A3A355
:100E1300A3D0E022C0E074F2120B02E589A2E150F4
:100E2300031221DE758900C2C57F01020BB9C0E040
:100E330074F2120B02E58BA2E050031221DE758BD4
:100E430000C2E880E47404800474028000CCC0E033
:100E5300EDC0E0E518C39CCCAD1950011D10AF06E1
:100E63008C188D1980068C188D19D2AF120F8DD066
:100E7300E0FDD0E0FC2274028000CCC0E0EDC0E0D5
:100E8300E518C39CCCAD1950011D10AF068C188D0D
:100E93001980068C188D19D2AF120F4AD0E0FDD0FD
:100EA300E0FC2212127B60251212A860201212F1BC
:100EB30070030212E7080808E76670101819E7665E
:100EC300700A1819E76670041819E76622F422C03D
:100ED300E0C0F088F0E49366700808740193661824
:100EE3007000A8F0A3A3700BD0F0D0E0D0E0D0E066
:100EF300020CF0A3A3D0F0D0E022D083D082CCC0E8
:100F0300E0E493A36006120FCD1470FAE493A36098
:100F1300061210DA1470FAD0E0FCE493A3C0E0E404
:100F230093C0E022C0E074F2120B02A2AFE433FEDE
:100F3300D2AFC2C0E5D1A2E4500312227AEEA2E0FE
:100F430092AF7F01020BB9CAC0E0E493A3C582CC80
:100F5300C582C583CDC583F0A3C582CCC582C583B5
:100F6300CDC583DAE5D0E0CA22C0E0C0D0E8C0E056
:100F7300E9C0E0E5A8D2AFC2C7A2E7A2E792AFD02B
:100F8300E0F9D0E0F8D0D0D0E032CAC0E0E0A3C5A9
:100F930082CCC582C583CDC583F0A3C582CCC5826F
:100FA300C583CDC583DAE6D0E0CA227009080808F4
:100FB300226016181818C6C333C608C633C608C637
:100FC30033C608C633C6D5E0EA22C0E0E493A3D310
:100FD3009C5010E493A3C39C400AD0E0D0E0D0E03F
:100FE300020F1AA3A3A3D0E022C008C3E096F5081A
:100FF30008A3E096420808A3E096420808A3E096F7
:1010030045087001D3D00822C09FF59FE473D09F99
:1010130022D083D082C09FE493C0E0740193C0E0E8
:10102300740293F59F222518F58210AF08F5184036
:101033000215198008F51840021519D2AF851983D6
:10104300227404800A74038006740280027401C04F
:10105300E0F404121029D0E01212B722BB0102E718
:1010630022C082C08389828A83BB0003E08002E4BA
:1010730093D083D08222C0D0251810AF08F5185022
:101083000205198008F51850020519D2AFD0D022F5
:101093006016080808C6C313C618C613C618C613B5
:1010A300C618C613C6D5E0EA22C3E0C696F608A35F
:1010B300E0C696F608A3E0C696F608A3E0C696F641
:1010C30022251810AF08F518400215198008F518E5
:1010D30040021519D2AF22C0E0E493A36C7009D08B
:1010E300E0D0E0D0E0020F1AA3A3D0E022E76670BD
:1010F300100809E766700A0809E76670040809E73B
:101103006622E066701008A3E066700A08A3E06632
:10111300700408A3E06622181818E6084608700A47
:10112300E608C3337005E633F4220822191919E7D8
:10113300094709700AE709C3337005E733F4220945
:1011430022C3E09608A3E09608A3E09608A3E096DE
:10115300A2D265D03322C3E096F008A3E096F0084C
:10116300A3E096F008A3E096F022181818E4C396BB
:10117300F608E496F608E496F608E496F622E026E6
:10118300F608A3E036F608A3E036F608A3E036F641
:1011930022E026F008A3E036F008A3E036F008A327
:1011A300E036F022E627F60809E637F60809E637BF
:1011B300F60809E637F622C0E0E8C0E0E58124FC42
:1011C300F8E6A2E7D0E0F8D0E022E657F60809E611
:1011D30057F60809E657F60809E657F622E056F6E9
:1011E30008A3E056F608A3E056F608A3E056F62255
:1011F300E647F60809E647F60809E647F60809E66A
:1012030047F622700422600D18C6C333C608C633DE
:10121300C6D5E0F41822E056F008A3E056F008A380
:10122300E056F008A3E056F022C6F4C608C6F4C69A
:1012330008C6F4C608C6F4C622C3E09608A3E0961F
:1012430008A3E09608A3E09622C3E7960809E79669
:101253000809E7960809E7962275D000758140755D
:10126300180175190300020B61E6F008A3E6F00804
:10127300A3E6F008A3E6F022E6084608C3134608EF
:10128300336002E633F422600C08C6C313C618C6E3
:1012930013C6D5E0F422E0F608A3E0F608A3E0F6CF
:1012A30008A3E0F622E7094709C31347093360029D
:1012B300E733F422CAC0E0E6F0A308DAFAD0E0FA92
:1012C30022EAF0A3EBF0A3ECF0A3EDF022E0FAA303
:1012D300E0FBA3E0FCA3E0FD22E5C754F84401F5DD
:1012E300C7790122E7C33319471947194722E6C3D0
:1012F30033184618461846222518F582E43519F5A1
:101303008322C2AF75D69F020000221210142B2E27
:1013130000121014512E001210148C2E00121014EF
:10132300D02E00121014F72E00121014482F0012A2
:101333001014F82F00121014B0300012101478316A
:10134300001210143832001210147C3200121014E0
:10135300A13200121014E4320012101431330012BF
:1013630010148934001210140F35001210142D3587
:101373000012101457350012101471350012101496
:101383008035001210148B35001210144B360012E6
:101393001014A436001210146637001210146E379E
:1013A300001210143238001210149E380012101458
:1013B300C93900121014EE3900121014643A0012E5
:1013C3001014F63A00121014B63B00121014D53B59
:1013D30000121014E43C00121014F63C0012101416
:1013E300663D00121014903D001210141E3E0012B0
:1013F3001014573E00121014A33E00121014BF3FE6
:101403000012101408420012101413420012101498
:101413001E4200121014294200121014334200120B
:1014230010143E420012101458420012101462426B
:10143300001210146C4200121014774200121014A0
:101443009F4200121014FA420012101404430012B7
:1014530010142843001210144C4300121014AA4312
:1014630000121014EE43001210140A440012101458
:10147300814400121014B9440012101405450012DF
:1014830010146245001210141C4600121014004878
:101493000012101459480012101489490012101434
:1014A300AF4900121014384B00121014B44E00123E
:1014B30010148650001210144F5200121014FC52D4
:1014C3000012101467540012101406550012101461
:1014D3004B5500121014B55500121014C4550012C8
:1014E30010144B5800121014FD59001210146A5AAC
:1014F30000121014495B00121014625C00121014E5
:10150300DF5D00121014FE5D00121014535E001212
:101513001014585F00121014805F00121014D85F6B
:1015230000121014B76000121014FB6000121014A4
:10153300466100121014B16100121014F26200121D
:101543001014566300121014A464001210140467DC
:1015530000121014356700121014ED6800121014F5
:10156300426900121014466A00121014E36A001252
:1015730010143C6B00121014EF6B00121014916CDA
:1015830000121014316D00121014D66D00121014D5
:10159300A38801121014E28801121014298B01127E
:1015A3001014738B011210148E8C01121014F68C0C
:1015B300011210142B8D011210149F8E011210149E
:1015C3002291011210144B9201121014E192011294
:1015D3001014E99B011210147E9C01121014659FD4
:1015E3000112101458A001121014C6A001121014F5
:1015F3000CA201121014EEA201121014D3A40112B2
:101603001014E4A6011210144EA70112101420A8FE
:10161300011210144EA8011210140BA90112101478
:10162300E2A901121014A9AA011210144DAB011260
:10163300101476AB0112101498AB01121014EEAD16
:1016430001121014C6AE011210140AAF01121014C5
:1016530072AF011210142AB0011210145CB00112FF
:101663001014A0B001121014D6B00112101422B13C
:101673000112101477B1011210147CB1011210146D
:10168300CFB101121014F4B10112101403B30112FB
:10169300101467B301121014D7B30112101463B4FA
:1016A3000112101430B70112101414B801121014DF
:1016B30097B901121014CDBB011210147BBC011297
:1016C30010142BBD011210146CBF011210140FC0A3
:1016D3000112101456C00112101402C20112101488
:1016E30016C20112101420C20112101448C20112B2
:1016F300101454C20112101473C20112101493C4B3
:1017030001121014E2C50112101426C6011210149E
:10171300CEC601121014B1C7011210145CC8011215
:101723001014A8C901121014A6CA011210144CCB2C
:1017330001121014DCCB01121014F3CB011210149C
:101743002ACC0112101434CC011210143FCC011214
:1017530010145DCC01121014A1CC01121014FECC94
:101763000112101423CD011210143DCD01121014D7
:10177300C9CD01121014E6CE0112101453CF011279
:1017830010143AD00112101461D001121014D5D0E4
:101793000112101450D10112101454D2011210145A
:1017A3004AD301121014F9D3011210140CD50112EB
:1017B3001014A8D50112101435D60112101413D722
:1017C300011210144BD701121014A3D701121014D5
:1017D3006CD8011210148DD80112101414D90112EF
:1017E300101438D9011210145AD901121014A3D9A4
:1017F30001121014B9DB01121014A0DC0112101431
:1018030051DD0112101487DF01121014D7DF01120A
:10181300101417E00112101459E001121014B5E06E
:1018230001121014E3E00112101407E10112101465
:101833005AE10112101488E101121014C1E10112DE
:10184300101416E2011210147CE201121014D0E3FA
:1018530001121014F3E50112101460E601121014C2
:1018630089E60112101414E7011210147BE7011228
:101873001014C6E701121014EAE7011210140EE85F
:101883000112101469E80112101484E801121014F3
:101893003DE90112101487A404121014C6A4041203
:1018A3001014788002121014BE80021210149E814C
:1018B30002121014A08202121014A3830212101435
:1018C3002F85021210148D85021210144A860212FB
:1018D3001014688702121014D98702121014158885
:1018E300021210146388021210146D88021210146D
:1018F300B188021210140D8902121014A889021261
:101903001014258A02121014F48A021210148D8BFB
:1019130002121014AD8B02121014E38B0212101476
:10192300148C02121014D58C02121014E58C0212BE
:101933001014398D02121014548D02121014668D76
:10194300021210146F8D02121014C98D021210149A
:10195300258E02121014718E021210148C8E021234
:101963001014BD8E02121014DA8E02121014E68EB9
:10197300021210145A9002121014739002121014CF
:10198300DA9002121014ED9002121014FB9002125E
:101993001014AF910212101493920212101499931F
:1019A300021210142394021210142D940212101414
:1019B3009A9402121014B19402121014E3940212B6
:1019C30010141C9502121014469502121014A795B8
:1019D30002121014C79502121014E5950212101486
:1019E3002B96021210145197021210149E97021292
:1019F3001014CD97021210144398021210146B980E
:101A030002121014A49802121014B29802121014A5
:101A13000A99021210145999021210149899021279
:101A23001014C89902121014F49902121014FF9999
:101A3300021210141D9A02121014DF9A02121014CB
:101A4300E99A021210142A9B021210147F9B0212AD
:101A53001014939B02121014A19C02121014B49C34
:101A630002121014C99C021210146B9D021210145E
:101A7300EE9D02121014AC9E02121014B79E0212B5
:101A83001014E39F02121014FF9F0212101451A0AE
:101A93000212101490A002121014A5A00212101426
:101AA30007A10212101496A102121014E1A102124E
:101AB300101432A402121014B0A40212101425A59B
:101AC3000212101447A7021210145FA70212101477
:101AD30062A7021210146EA70212101482A7021238
:101AE30010148AA702121014BDA7021210146DA8B5
:101AF30002121014E3A80212101456A902121014B1
:101B03000AAA02121014BFAA02121014DEAA0212A9
:101B1300101484AB02121014AFAB02121014B2AB48
:101B2300021210141CAC0212101444AD0212101451
:101B33001CAE02121014A7AE02121014C0AF021290
:101B430010147DB002121014B6B002121014E7B0D4
:101B530002121014A5B102121014D5B102121014FE
:101B6300B0B20212101449B302121014D4B3021209
:101B7300101485B40212101408B5021210143AB5E9
:101B8300021210147BB502121014EEB303121014D8
:101B93004FB4031210148CB403121014DFB40312E5
:101BA300101408B703121014D8B80312101445BC4C
:101BB300031210147CBC031210149ABC03121014E9
:101BC30010BD0312101438BD0312101469BD0312A3
:101BD300101499BD03121014F5BD0312101413A8A9
:101BE3000312101491A803121014C7A8031210149F
:101BF30033A903121014A6AA03121014C2AA0312C3
:101C0300101407AB0312101494AB03121014EDABB2
:101C13000312101419AD0312101427AE031210147B
:101C230084AE03121014F0AE0312101451AF03125A
:101C3300101492AF031210143FB00312101451B1D9
:101C43000312101494B103121014E2B1031210140E
:101C530019B203121014BCB20312101477B3031297
:101C63001014DF86041210145A87041210146587A7
:101C73000412101486870412101441BE03121014A8
:101C83004BBE0312101497BE03121014D7DF0212B7
:101C9300101426BF03121014D6BF0312101493C2DC
:101CA300031210149CC203121014EFC20312101477
:101CB30018C30312101476C30312101407C40312BB
:101CC300101443C4031210148FC403121014F6C467
:101CD300031210142FC503121014B5C503121014E8
:101CE300F4C50312101435C6031210146CC6031284
:101CF30010147EC60312101490C603121014AFC63C
:101D030003121014122E0012101470C703121014B1
:101D1300B0C70312101429A2041210146291041202
:101D23001014989104121014E391041210143193B7
:101D33000412101477E901121014C2EA01121014EC
:101D4300FEEA01121014B5EC01121014DEEC0112BC
:101D5300101476EF01121014B6EF0112101457F19C
:101D630001121014F1F10112101459F2011210149E
:101D7300E6F2011210141EF3011210145EF30112A5
:101D83001014F1F40112101490F601121014DFF87C
:101D9300011210140DF90112101439F90112101463
:101DA30042F901121014C0F901121014E9FC0112D6
:101DB300101444A6041210145AA60412101494A367
:101DC3000412101470830412101485830412101467
:101DD3002284041210145E840412101475840412F5
:101DE30010149C8404121014E1840412101412853C
:101DF300041210144A8504121014D286041210140B
:101E0300829C04121014B89C04121014D49C041263
:101E13001014169D04121014269D04121014BB9D59
:101E230004121014C59D041210148AE60212101431
:101E330093E6021210149AE702121014E4E7021256
:101E43001014D4E802121014DDE80212101426E96B
:101E5300021210145FEA0212101468EA021210143C
:101E6300AFEA0212101458EB0212101464ED0212BE
:101E730010146DED02121014E1ED021210145CF156
:101E83000212101468F102121014C8F10212101495
:101E9300E5F102121014EBF202121014F4F2021222
:101EA30010143FF302121014B7F502121014CDF5FB
:101EB30002121014F8F502121014BEF602121014D6
:101EC300D0F60212101495FB02121014A0FB02129A
:101ED3001014FCFB02121014C2FC0212101400FDB9
:101EE3000212101494FD0212101415FE02121014A3
:101EF30014A504121014909A03121014E59A0312F5
:101F03001014D19B03121014739C03121014BD9C64
:101F1300031210141E9D03121014329D0312101489
:101F2300649D03121014629E03121014F19E031297
:101F33001014089F03121014539F03121014699F67
:101F430003121014769F03121014AA9F0312101485
:101F5300CA9F0312101465A003121014BFA003122A
:101F6300101412A10312101443A103121014B2A3EC
:101F730003121014E3A3031210147EA4031210140B
:101F8300FCA40312101401A5031210143DA503129F
:101F9300101496A5031210145AA60312101484A643
:101FA300031210148EA60312101491A60312101418
:101FB30019A70312101442A70312101455A70312F2
:101FC300101490A70312101493A7031210149EA7C2
:101FD30003121014DAA7031210143AA404121014F3
:101FE30052A40412101430D1031210147FD103121F
:101FF30010142ED303121014F5D40312101439D570
:102003000312101460D60312101491D70312101484
:10201300B3D7031210140FD80312101491D803125C
:102023001014008003121014218003121014A980CD
:10203300031210142F8103121014AB810312101416
:102043001482031210145C8203121014ED82031223
:102053001014828303121014138403121014548473
:1020630003121014DF88031210146D8A0312101464
:102073000B8B03121014348B03121014568D03129E
:102083001014F98F03121014C99003121014F7914E
:102093000312101463950312101473950312101492
:1020A300B996031210145F97031210148498031245
:1020B30010147D9903121014009A03121014226E47
:1020C30000121014DE6E001210145B6F0012101455
:1020D3001D70001210148970001210145673001230
:1020E3001014F773001210145B7400121014F175BE
:1020F30000121014A976001210142D770012101478
:10210300B47800121014C47900121014697A001202
:1021130010143A7B001210140D80041210145D8009
:1021230004121014B9800412101404810412101440
:102133005F8104121014DA81041210146F820412E6
:102143001014B38204121014C982041210142483CD
:10215300041210146183041210148E9704121014C5
:10216300BF9704121014799804121014DF98041204
:102173001014338A04121014BF8B04121014F1A527
:102183000412101402A604121014689904121014F5
:1021930076990412101482A604121014FEA20412DB
:1021A30010140EA30412101429A3041210148AA3EA
:1021B3000412101425A104121014AAA1041210145D
:1021C30010A20412101413A00412101435A0041248
:1021D30010149FA004121014AAA004121014EEA04D
:1021E30004121014B8DD03121014C6DD0312101408
:1021F30009DE0312101423DE03121014A9DE0312E6
:102203001014AADF03121014CFDF03121014ECDF33
:102213000312101409E0031210142EE00312101419
:1022230063E003121014ACE00312101423E1031251
:102233001014DAE10312101440F8031210144EF8CC
:1022430003121014C8F803121014ACF9031210147B
:1022530065FB03121014DAFF01121014C1D8031224
:1022630010142DD903121014ECD903121014F8DA38
:102273000312101451DC03121014ACDC03121014FB
:1022830001DD031210140ADD031210141CDD031206
:10229300101486DD031210149ADD03121014A4DD4A
:1022A3000312101492E203121014E7E20312101443
:1022B300E3E40312101415E50312101437E50312B7
:1022C300101450E50312101469E50312101473E699
:1022D300031210140EE703121014179B04121014A8
:1022E3003B9B04121014549B04121014939B04126E
:1022F3001014C69B04121014F69B041210145E9C57
:1023030004121014619C041210146B9C0412101418
:10231300789C041210146A8C04121014928C041208
:102323001014D38C04121014E58C04121014008DB5
:1023330004121014688D04121014748D04121014F6
:10234300D38D04121014F78D04121014B88E0412D6
:102353001014C58E04121014D68E0412101453A533
:102363000412101470A50412101491E70312101430
:10237300F1E803121014F7E8031210140EE9031224
:1023830010142FE90312101445E90312101459E92C
:1023930003121014D8E9031210143DEA03121014A7
:1023A300D3EA03121014ACEB03121014BCEB0312A8
:1023B3001014CBEB0312101458FF031210147CFFFC
:1023C30003121014A4FF03121014CCFF03121014F1
:1023D3006EFD0112101495FD01121014B6FD0112C9
:1023E300101428FE01121014048F041210141D8FF0
:1023F30004121014348F041210143D8F041210149D
:102403005B8F04121014658F041210146F8F041263
:102413001014828F04121014D78F0412101410900A
:10242300041210143E90041210148F90041210140E
:10243300DB9004121014F69004121014009104128D
:102443001014119104121014579104121014E9A3DB
:1024530004121014D9C70312101405C80312101460
:1024630023C80312101436C80312101451C80312E0
:102473001014B0C803121014DEC803121014EDCCEC
:102483000312101432CE0312101464CE031210146C
:10249300D0CE0312101419D00312101441D003121A
:1024A300101456D00312101466D003121014A6D0C1
:1024B30003121014F2D00312101402D103121014D9
:1024C300C89D04121014D89D04121014F69D041212
:1024D3001014119E04121014389E04121014599EE5
:1024E30004121014739E04121014AB9E04121014E1
:1024F300CE9E04121014D0A404121014CAFB0312AB
:102503001014D1FB03121014EEFC031210141EFD61
:102513000312101444FD0312101477FD0312101458
:1025230089FD03121014C5FD031210142BFE0312B0
:10253300101467FE03121014AEFE03121014DBFE18
:1025430003121014FCFE03121014A59504121014A8
:10255300BD9504121014AB96041210148B97041239
:102563001014009F04121014729F04121014B09FD1
:1025730004121014F19F041210148DF4031210149A
:10258300ACF403121014FBF40312101417F5031226
:10259300101448F50312101455F50312101462F5C4
:1025A300031210144AF60312101488F603121014BF
:1025B3009BF703121014A6F703121014B8F70312B3
:1025C3001014C1F703121014CBF703121014FCEB11
:1025D3000312101423F00312101431F00312101419
:1025E300E17F00121014A07C00121014E1FE02120D
:1025F3001014807F00121014949304121014C5A5B4
:10260300041210149BF0031210148FA5041210145B
:102613001CA60412101464A604121014BBDF0212C9
:1026230010143FDF02121014F6DE02121014AEDE95
:1026330002121014FCDD021210146EDD02121014CB
:1026430061DD021210145BDA02121014BDD70212FC
:102653001014BE2D001210141A2D0012101486D659
:1026630002121014DAD502121014902C0012101456
:102673002F2C0012101420D402121014D0D10212E5
:10268300101457D102121014FED0021210148ED05F
:102693000212101465D00212101445CE0212101447
:1026A30011CE02121014DECD02121014C2CD02128A
:1026B3001014DBCC0212101493CC02121014DECAD5
:1026C300021210145ECA021210145BCA0212101412
:1026D30058C90212101426C90212101463C8021238
:1026E30010148EC6021210141FC602121014F1C564
:1026F30002121014DD2B00121014CB2B0012101435
:1027030063E60212101445E602121014FEE40212EC
:102713001014EEC502121014DBC50212101486C584
:10272300021210145BE40212101475C50212101485
:1027330067C40212101431C402121014DFC3021250
:1027430010140EE302121014B8C60312101480C33F
:10275300021210144FC30212101417C002121014E5
:10276300D7BF02121014CBBF021210142BBF0212D8
:1027730010146BBE02121014EDBB021210147EB9BA
:10278300021210143CB90212101410B802121014E1
:10279300C5B70212101404B702121014D7B60212EE
:1027A30010141AB602121014B0B502121014EAB5BE
:1027B30002121014B9E00212101405BF0300000046
:1027C30080FB000136360101000102010001030113
:1027D3000001040106060502000007010034080198
:1027E300000F090401010D0100FF0E08000017028C
:1027F3000000190100FF1A0100011B0100FE1C016A
:1028030000081D0200001F01000120010001210238
:1028130000002301000F240200002601000127010C
:102823000008280200FF2A0100072B0102402C01A7
:1028330000002D0100012E0100012F0100FF3001D6
:102843000B1C310800003A0100083B01000F2F0167
:1028530000000302710230016002110270020102E2
:10286300020202028002100261023A004100630286
:102873007302720262024302000213023800000272
:10288300000204021202000200020002000204021B
:102893000402370037003C02440200023900000200
:1028A3000002650200023502810200020502820273
:1028B3008302000203007100300160001100700008
:1028C3003102200350048000100061000000140056
:1028D30063007300720062004300000013000600EF
:1028E30000000000040012000000000000000000CF
:1028F30004000400370037003C02440000000000DD
:1029030000000000650000003500810000000500A4
:102913000000830000000304710402046004110436
:10292300700402040204010402041004610400049C
:102933001404630473047204620443040004130460
:102943000604000400040404120400040004000448
:10295300000451046400000400040004440400045F
:1029630000040004000465040004350481046400C9
:10297300050400048304000401037103010301033C
:1029830001030103010322030203010310030003F4
:1029930000030003000300030003000342030003DA
:1029A3002403060300030003040312032503230384
:1029B3002503230304030403000300030003440368
:1029C3000003000323030003650321003503810390
:1029D300000305030003000300030101710101016A
:1029E3000101110101013101010101018001100106
:1029F30061013B0014006301730172016201430131
:102A03000001130106013D0135000401120100011B
:102A130000010001000104010401330133013C0101
:102A23004401320136000001000165010001350057
:102A330081010001050182018301000136000100CB
:102A4300060000000F00000000000000000000006E
:102A5300000003FFFF00000403FFFF0000FFFF0F60
:102A6300F4010005C4040320000100030B0000006F
:102A7300000000000003010F0000D62013007620A1
:102A83000100D620020040200300462004004C2011
:102A93000500522006005E20FFFF000001D8150646
:102AA30008160802160B141610541502DE1505F647
:102AB3001507E4150CBA150DCC15FF000003EAF554
:102AC300E5D5D5C5B5A595958585757565655555C3
:102AD300454535352525151505E019101AE619EC78
:102AE300190A1AFE19F819161A1C1A221A2E1AF2A2
:102AF30019DA19D41900160F00000B150B02000286
:102B0300220F32000006CA1ADC1AE21AAA19E81ABE
:102B1300A419B019E418DE181A1920191419CC18BD
:102B2300241B421B481B2A1B361B301B3030161834
:102B33001920231A1C1E300C0E020B040B0A070863
:102B4300000F00383C3E363B3B352B432C303017CF
:102B5300181921301B1D1F300001191618161615E0
:102B630023030000034948424D1817250502181B8B
:102B7300EE1AF41A001BFA1A041A281A3C1B341A08
:102B83003A1A020402010101010902F018F618EAD7
:102B9300182619000000000000FC180E1900BE04DE
:102BA3000A0E00150004007F00E8030C0028000053
:102BB3000000000308100C0A03080900040001FFC9
:102BC3001E1E0C05040F1008C082C0838A828B83EB
:102BD300E0D2E7F0121FA4023D42C082C083790015
:102BE300123097125DAEC082C083900334124B340F
:102BF300D083D082C3E09CA3E09D500C126482FA80
:102C0300A3E0122C0E600109023D42FBEA75F00BB2
:102C1300A4FAA8F075F00BEBA428FB900336E02A86
:102C2300F8A3E03B8882F583E0540F2274F7120A7D
:102C330096890812309712313DACF075F00BE9A478
:102C43002CF9900336E028FEA3E039FF74016508F0
:102C530060067402650870208A828B831231291200
:102C63003E1074026508701B122FE8123170701346
:102C73008E828F83E4F0800BEA2403FCEB12310B8A
:102C8300123117EEFAEFFB1226FA023D7A74F412B0
:102C93000A96126DA979008E828F83E06076890A85
:102CA300890B8065E50A75F00BA4FAA8F075F00BA3
:102CB300E50B122C1B7046E50A75F00BA4F8AAF07D
:102CC30075F00BE50B12314F8E828F83E0850882FE
:102CD300850983123231850882850983A3123E1048
:102CE300EE2403FCEF123114123D49125828AA08AE
:102CF300AB091226FA790190033412523DE50A24F6
:102D030001F50AE50B3400F50B122FF0E50A9AE5FD
:102D13000B9B4090023FBA74F5120A96EAFEEBFF52
:102D2300740B1212FB123D4E750A01EC4D602BEC35
:102D3300126DC5ED125DAE123E087901122670E5E3
:102D4300084509606F850882850983A3126DB379ED
:102D530002AA08AB09122670805AE5084509602BC0
:102D6300125DB212447C123D4A12315A700CEEFAD3
:102D7300EFFB12266AE9F50A80CBEE2403FA123040
:102D83009270317903EEFAEFFB80CA8E828F83A3B0
:102D9300E064FE7003A3E0F4700BEE24030A0A0A56
:102DA300123092700CEEFAEFFB12266AE9F50A80F4
:102DB30003750A00A90A7F03020D9274F7120A969B
:102DC300900334123D8AEA4B602FEA75F00BA4FAA4
:102DD300A8F075F00BEBA428FBEAFEEBFF121D280D
:102DE300900336123D8A9003361250826012EEFC35
:102DF300EFFD79001227BA8007900336E4F0A3F0C1
:102E0300023D7A9003341247ECC3EE98EF9922C047
:102E130082C083EC4D600512257480097C087D0017
:102E230079001227BA023D4274F6120A967900EA33
:102E33004B6018780088081260F5EB12647E60041A
:102E43007901780808E8C3940840EA023E1974F748
:102E5300120A9674F31210C4ECFEEDFF85188285F6
:102E63001983E4F0041212FBEAF0A3EB1255AE74DB
:102E7300031212FBAC82AD83EEFAEFFB121D04EEDC
:102E8300FAEFFB12130E023D7574F7120A9674F3F0
:102E93001210C4ECFEEDFF851882851983E4F0EA75
:102EA300FCEBFD74031212FB12322A74011212FBA3
:102EB300123E048E828F83123E1074FE6870037478
:102EC300FF696004790180027900023D7574F7128D
:102ED3000A96EAFEEBFF122F2E7014122F398E8200
:102EE3008F83E0F4F88A828B83E058F01226FAA9E4
:102EF30008023D7A74F7120A96EAFEEBFF750800A2
:102F03008E828F83E06022122F2E701D122F398A3A
:102F1300828B83E08F838E82F8E058700CE0F88A0E
:102F2300828B83E048F01226FA80C41226F4E9F576
:102F3300087401650822126DBE123141123083FA02
:102F4300A3E039FB2274F4120A968A088B097C00E9
:102F53007D00122FE81231171230A8126DB07900DC
:102F6300850882850983A3E064FE7003A3E0F4600F
:102F7300717E007F008062EEFAEF122C0E6057EE36
:102F8300FAEFFBEA75F00BA4FAA8F075F00BEBA4CB
:102F930028FB900336E02AF50AA3E03BF50B8508EE
:102FA30082850983A31254FC850A82850B83A3E0DF
:102FB3006A7003A3E06B701EE50A2403FAE50B12A3
:102FC3003093700AE50A2403FCE50B123114123026
:102FD3009C7901125DC4123987122FF0EE9AEF9B90
:102FE3004095023FBAEA24030A0A0AEB229003340B
:102FF30012599BC32274F3120A968A088B098A8298
:103003008B83A3126DB3123097126DB0750C00123F
:103013002FE812309370547E007F00804912307580
:10302300FAA3E0398A82F583E0540F6036123075D3
:10303300F50AA3E039F50BE50A2403FCE50B12318D
:103043001E3400FB12256EE964017017850A828520
:103053000B83A3125A5CA3123E1012309C750C0111
:10306300125DC4123987122E0640B2A90C7F0502E5
:103073000D92EEF8EFF9E875F00BA4F81230832205
:10308300AAF075F00BE9A42AF9900336E02822EFA1
:1030930012316A22126DC4EB221230A8125DBFEE08
:1030A300F0A3EFF022E508126DC5E5092274F512CD
:1030B3000A96EAFEEBFF8E828F83A3126DB37C0028
:1030C3007D00EE24030A0A0AEF123117EEFAEFFB32
:1030D3001226F4E9F50A7401650A7029126DBE120D
:1030E300313DAAF075F00BE912314F850882F58363
:1030F30012312912315A700DE5082403FCE5091237
:10310300310B123117022DB73400FDEE2403FAEF11
:103113002212311E3400FB121D04223400FDE50887
:103123002403FAE50922A312312E2212313222E0BE
:10313300F8A3E0F98E828F83A32212314122340057
:10314300F5831247F0E875F00BA4F822123089F5E5
:1031530008A3E039F50922E8F0A3E9F0E508240320
:10316300FAE50912316A221231706401223400FB3C
:1031730012130EE92274F3120A9674E61210C412A3
:103183006DA9750C01750800750900750A00750BAA
:1031930000851882851983E4F0EE2403FCEF3400E4
:1031A300FD74031212FB12322AE964017023740BBB
:1031B3001212FB123E0874011212FB125500700327
:1031C300A3E0696051851882851983858208858308
:1031D30009740D1212FBE4123231740E1212FB1237
:1031E3003E10740D1212FBAA82AB8312132CE964F6
:1031F30001700B740D1212FB85820A85830B780A0A
:1032030012104CAC08AD09EEFAEFFB12265874020B
:10321300121079E9F50CEEFAEFFB121326A90C74E0
:103223001A1210790230701234FD12133222123D39
:10323300851247EC22C082C0837800790080031294
:103243003328122FF0E89AE99B5029E8FAE9FBEAC0
:1032530075F00BA4FAACF075F00BEBA42CFB900308
:1032630036E02AFCA3E03B8C82F583E0540F70CF59
:10327300790080027901023D42C082C083902BA66F
:10328300124842EC75F012A4FCA8F075F012EDA4FC
:1032930028FD79FF7A097B0C1227BA023D4274F7A5
:1032A300120A96E9FEEAFF7A007B00780079008033
:1032B30028E8FCE9FDEC75F012A4FC85F00875F034
:1032C30012EDA4250812373DC39E400AE0FCEFC36C
:1032D3009C400312385C12332812373140D3023D2D
:1032E3007AC082C0837800790080031233281233B6
:1032F3001C501F123741F470F2E875F012A4F8AABB
:10330300F075F012E9A42AF9740928FA740C39FB50
:1033130080047A007B00023D42902BA61237F2C351
:10332300E89AE99B22E8240108E93400F92274F0C1
:10333300120A9674F31210C48A0A8B0B8C0C8D0D2F
:103343008908EC450D6016AA0CAB0D1213808A0E8A
:103353008B0FAE0EAF0FEE4F60030233EF12135617
:103363008A0E8B0FA80EA90FE8FEE9FFE849607CDF
:10337300902BB41234516022740365086006740400
:10338300650870167A047903121350902BB4123423
:103393006840077A007B0002344E902BB2123451FE
:1033A300601B74016508600674026508700F7A0279
:1033B3007901121350902BB212346850D6851882BB
:1033C3008519837401F01212FB125828AC0CAD0D51
:1033D30074031212FB1234F6740B1212FB123D56D5
:1033E3001241F0E41258101218248004EE4F604A80
:1033F300780074FF2508C39404500278048E828FEA
:10340300831258288E828F83A3A3A3A3E508F0E831
:103413008E828F83A3A3A3A3A312583012083E1254
:1034230038098E828F83A3A3A3A3A3A3A3F0123887
:10343300001212D0125DA81212C412345640059025
:103443001167E4F01216FEEEFAEFFB0247F612598B
:103453004A49227A047900121350902BA61264640D
:10346300EA98EB992212348175832B7582A6E49333
:10347300C398F8A3E49399F9C3EA98EB9922E493E8
:10348300F8740193F92274F2120A9674F31210C4B9
:103493008A088B09ECFEEDFF750A00EEFAEFFB12CA
:1034A30013808A0C8B0DA80CA90DE849603E888215
:1034B3008983E065087004A3E06509602F88828929
:1034C30083A3A3A3A3E0C394055021125C568518DC
:1034D300828519837401F01212FB125C5AEEFCEF21
:1034E300FD74031212FB1234F6750A01A90A740D56
:1034F3000252F41234FD12133E22AA82AB83121D30
:1035030004851882851983AA82AB832274F6120A72
:103513009612354B600FA3A3A3A3E014C3940450E6
:1035230004790180027900023E1974F6120A961298
:10353300354B600FA3A3A3A3E014C39402500479F3
:103543000180027900023E1912137A8A828B83E585
:103553008245832274F6120A9612354B600BA3A39D
:10356300A3A3E07004790180027900023E19C082AE
:10357300C083EAFCEBFD7A007B00023D3FC082C0C2
:10358300837C007D00023D3F74F4120A9674F312AB
:1035930010C4EAFEEBFF8C0A8D0BC3EC94F8ED9498
:1035A300FF4007EE4F7003023644750800750900AB
:1035B300802E8518828519837401F01239AF121297
:1035C300FB1239BD601374031212FBAC82AD83EEA0
:1035D300FAEFFB12256EE97049E50824011237DD85
:1035E300902BA6E4125952E50898E509995052E543
:1035F3000875F012A4F8AAF075F012E509A42AF9E7
:1036030012649760D4EE4F70A974FF650A70047456
:10361300FF650B60C412399F650A7004A3E0650B54
:1036230070B7E50875F012A4F508A8F075F012E577
:1036330009A428F50974092508FA740C3509FB80D7
:10364300047A007B00023FB574F4120A9674F312F5
:1036530010C47508001213808A0A8B0BAE0AAF0BD5
:10366300EE4F602A8518828519837401123D7FF815
:10367300A3E0F9740B1212FB123E931213207C1277
:103683007D0079FFEEFAEFFB1227BA7508011234B9
:103693005650099011677401F01216FEA908023FF3
:1036A300B574F7120A96E9FE74FE6A700374FF6B31
:1036B3007800790070058052123328123731504A4E
:1036C300E8FCE9FDEC75F012A4FCAFF075F012ED27
:1036D300A42F12373DF460E0E8FCE9FDEC75F0122D
:1036E300A4FC75F012EDA42FFD74092CF582740C63
:1036F3003DF583E06A7003A3E06B70BC8009123769
:103703004114C39404401712332812331C5018EE8B
:1037130070EC12374164016005E0640370E912390B
:1037230090FAA3E0FB80047AFE7BFF023D7A902BA4
:10373300A6124846C3E89CE99D2212389122E8FA72
:10374300E9FBEA75F012A4FAACF075F012EBA42CC5
:10375300FB740D2AF582740C3BF583E0221213925D
:10376300023D42C082C083790180F274F0120A964E
:103773008A0A8B0B7A0479011213508A0C8B0DEA97
:10378300450D603EEAC333FAEB33FB121D288A086A
:103793008B09AE08AF09EE4F60237AFE7BFF12134D
:1037A3009874FE6A700374FF6B601B850882850939
:1037B30083123D8AE50824021237DD80E1750C008F
:1037C30080047E007F00850A82850B83E50CF0EE82
:1037D300FAEFFB0247FBE5082407F508E509340087
:1037E300F50922902BA6124846C3EA9CEB9D22E4DE
:1037F30093FA740193FB22121C80740322125DB9A5
:10380300E4F090883C22E88E828F83A3A3A3A3A332
:10381300A3A3A312382B740112382BA3F0EE2410A8
:10382300125DBCE4F0A3F0221241FCA3A3A322C0C7
:1038330082C0837A007B0080041912385C1237E659
:10384300501012387BC3940550F0E970EC123865C0
:1038530080047A007B00023D42EA24010AEB340033
:10386300FB22EA75F012A4FA75F012EBA428FB749C
:10387300092AFA740C3BFB22EAFCEBFDEC75F0120F
:10388300A4FCA8F075F012EDA42812389122FD745F
:103893000D2CF582740C3DF583E02274F7120A9621
:1038A30074F31210C47E007F00023943E50875F0FB
:1038B30017A4F8A9F01266F8FAA3E0FBEEF8EFF903
:1038C300E875F012A4F8ACF075F012E9A42C1239E3
:1038D3009E6A7003A3E06B603FE50875F017A4F8D8
:1038E300AAF0EA1266F7F8A3E0F974011212FBE0FA
:1038F300687003A3E0696020E50875F017A4F8EA8F
:10390300F9748528FC740D39FD74031212FBAA8225
:10391300AB8312256EE96014E50875F017A4F8A9C6
:10392300F0748328FA740D39FB1218300508902BB4
:10393300B8E493F8E508C39850030238AF12398707
:10394300902BA6126A3E5039EEF8EFF9123990F433
:103953007003A3E0F460E68518828519837401F08F
:10396300EEF8EFF9E875F012A4F875F012E9A42A5D
:10397300F91239AF1212FB1239BD60C1750800800C
:10398300AD023D75EE24010EEF3400FF22E875F021
:1039930012A4F8AAF075F012E9A42AF91239A322A5
:1039A300740928F582740C39F583E022740B28F529
:1039B30082740C391247EA740B22E8F0A3E9123E31
:1039C3009B121338E922C082C08390033D74F0F048
:1039D300A37415F090033F74EAF0A37415F09003F9
:1039E30043740AF0A37414F0023D4274F7120A966A
:1039F300EAFEEBFF900377E06408601BE064046079
:103A0300168E828F83E0540364017048123D49127D
:103A130042F1E06406703D8E828F83A3A3E064FECF
:103A23007003A3E0F4602D8E828F83A3A3123E0460
:103A3300900368E0687003A3E069700BEE2415F54A
:103A430082EF12647E600812169EE9F50880081260
:103A530016A480F67508C2EEFAEFFB121D2E022E95
:103A6300F274F4120A968A088B098A828B83E0F82F
:103A7300A3E0FAE82AFAE43400FB121D288A0A8B31
:103A83000BAE0AAF0BEE4F6063850882850983E0B6
:103A9300FC7D0079001227BA8E828F83A3A3126D57
:103AA300B31216E08E828F83A3A3A3A3123D8A854C
:103AB3000882850983E0F8EE28F8EF3400123E0C03
:103AC300850882850983A3E0C0E0EE240D125DAB77
:103AD300D0E0F01216F2EE240E125DABE912545D43
:103AE300E0C0E0EE2411125DABD0E0F0EEFAEFFBA4
:103AF300023FBA74F6120A9674EB1210C4EAFEEB94
:103B0300FF12507F6003023B9A7A077B00121D2845
:103B1300900339123D8A12507F60788E828F831210
:103B230012D090033A1242F41212C4126C77C0E01E
:103B3300123BA6D0E0F0EE2405FAEF3400FB8A082E
:103B43008B098A82F583E0C0E0123BA1D0E0123FEB
:103B5300B1E0C0E0123BA1A3D0E0123DF61212D0B7
:103B63008518828519831212C488828983E0C0E094
:103B730074051212FBD0E0F0850882850983E0C04A
:103B8300E074041212FBD0E0F074071212FB123C33
:103B9300DC80067910800279017415023E16123B0F
:103BA300A6A322900339E0FAA3E0F5838A82A3A3B4
:103BB300A3A322C082C08312507F600D90033912E9
:103BC3005989900339E4F0A3F012160E1217D002AC
:103BD3003D4274F0120A9674EB1210C4ECFEEDFF32
:103BE300890874251212FB780C1212997429121287
:103BF300FBE0F9742A1212FBE0FC742B1212FBE0B7
:103C0300FD740F697005740F6C60129011F8E06415
:103C130002700579C1023CD7E9C39C40F690037852
:103C2300780C12126CE50890037EF0E990037CF0A7
:103C3300ECA3F0ED90037FF074FF6A700374FF6BE5
:103C4300701D901203E0F47003A3E0F47005121CDE
:103C53009E800C901203123D5FE8F0A3E980079069
:103C63000375EAF0A3EBF0EE4F6017EEFAEFFB12E9
:103C73001890E96401700BEEFCEFFD7A897B031267
:103C83002574900368E4F0A3F090036BF0A3F09025
:103C93000388F09011F8E06402700890037C740FBD
:103CA300F0A3F09003777405F0141212FBE4F09084
:103CB30003781212D08518828519831212C49003D7
:103CC3007EE0C0E074051212FBD0E0F0740712121C
:103CD300FB123CDC74150247F8E4123E9B12259E4E
:103CE30022C082C083900338E07003122070121345
:103CF300DA804CC082C083900338E0901166700470
:103D0300E4F0802D7401F0900338E0F460237C41EB
:103D1300E0C394415002E0FCECF8E0C398F0EC758A
:103D2300F0E8A4CCA8F075F003A428FD7A8012482B
:103D33004E7A667B11794112258C8003121386D04B
:103D430083D082021011EE125DBA22E0F508A3E0DF
:103D5300F50922123D5A22123132A3221247EC9066
:103D630003752274F7120A96EB90037FF01215FC89
:103D73008005740D1210797F01020D92123D85A307
:103D8300E022123DF6A322EAF0A3EBF02274F7122D
:103D93000A9674F81210C4EAFEEBFF7900900377D9
:103DA300E06408704485188285198374FDF0A37458
:103DB300FFF01216DA74021212FB123D8A74051216
:103DC30012FBE4123D85E0C0E074041212FBD0E064
:103DD300123DF1C0E074061212FBD0E0F07407123A
:103DE30012FBE4123E9712171C7408023D77123D32
:103DF300F6E022F08E828F8322F085188285198364
:103E0300221247EC22E0F8A3E0F9125DB9E8F0A32F
:103E1300E9F0221210797F02020D92C082C08390D2
:103E23000349749AF0A37414F09003EF7476F0A32B
:103E33007417F090034D74D0F0A37414F090034FF3
:103E4300749AF0A37414F090035174D6F0A374140D
:103E5300F0023D4274F4120A9674F91210C48A08EF
:103E63008B098C0A8D0B85188285198378081212A9
:103E73006C74041212FBE9F074051212FBE4F07483
:103E8300061212FBE4123E971213C27407023FB7E5
:103E9300E8F0A3E9123E9B22123DFCAA82AB8322E7
:103EA30074F4120A968A088B098A828B83125DC77F
:103EB300EE4F7003023FAF90031212508260158AD7
:103EC300828B83A3A3E0F9EEFAEFFB900313124274
:103ED300F4120C118E828F83A3A3A3A3A3A3A3A382
:103EE300A3E0640270748E828F83A3A3A3A3A3A30E
:103EF300E054027003023F81850882850983A3A3EE
:103F0300E064E960798E828F83A3A3A3A3A3A3A311
:103F1300A3A3A3E070149011FBE0048E828F83A30C
:103F2300A3A3A3A3A3A3A3A3A3F08E828F83A3A37B
:103F3300A3A3A3A3A3A3A3A3E014123FB1A3A3A387
:103F43007404F09011FC125802E8F0A3E91268DB44
:103F53008B0BEA450B70031262B98E828F83A3A386
:103F6300A3A3A3A3A3A3A3E0640260128E828F83FF
:103F7300A3A3A3A3A3A3A3A3A3E06406702E8E828B
:103F83008F83A3A3A3A3A3A3E0A2E0501F8508826A
:103F9300850983A3A3E0F9EEFAEFFB1226A68E822E
:103FA3008F83A3A3A3A3A3A3E054FEF0800912412C
:103FB300F822740D1210797F04020D9274EC120A28
:103FC3009674DD1210C4EAFEEBFF8C088D0974377A
:103FD3001212FB780C121299750A0074051212FB67
:103FE300AC82AD831227B474121212FBE070087412
:103FF300151212FBE0602074051212FBE0A2E650DA
:104003001E8E828F83A3A3A3A3A3A3A3A3A312544C
:10401300FC121752E96008790312255C0241DE7431
:10402300051212FBE0540C64047005750B01800348
:10403300750B00E0A2E55035750A01E50BA2E040DF
:104043002C1216E08A108B11A810A911123D49E019
:10405300687003A3E069601574051212FB126DBA50
:104063001254F81226B2E96004790480AC74051284
:1040730012FBE0A2E6502274061212FBE054037016
:104083001874051212FBE0540C640C600CE0540C21
:104093006408600575100180037510007405121221
:1040A300FBE05403F8740268700C126DBA1254F8F2
:1040B30012270C0241DE740168703AE510A2E05049
:1040C300031241E674051212FBA882A9837403123A
:1040D30012FBE8F0A3E91247E085188285198312E1
:1040E30041F0E0C0E074021212FBD0E0123E9712DE
:1040F30027960241DEE860030241DE90035FE0643D
:104103000170108E828F83A3A3A3A3A3A3E07003E4
:1041130002406C74221212FB74021247E0741A12EA
:1041230012FB123E10E510A2E0500874051212FBB8
:104133001241E6E50BA2E0506AEE240FF582EF127E
:10414300647EC0E074171212FBD0E0F090031412E7
:10415300508270030241DE1216E08A128B13A812FA
:10416300A913741A1212FBE0687003A3E069706B61
:10417300780C121044780A121050780812104CA9C7
:1041830010740C1212FBAC82AD8374211212FBAAC1
:1041930082AB839003141242F1120C1174071210B4
:1041A300798038780C121044780A1210507808126B
:1041B300104C900375120E4CEE2412F582EF12612F
:1041C300AC74231212FBAC82AD83740E1212FBAAE1
:1041D30082AB8312269A7409121079742312107910
:1041E3000268A6126DBA12599712274222E8F0A369
:1041F300E91241F8221241FC22F08E828F83A3A39D
:10420300A3A3A3A32274F7120A96121F5C023D7A9A
:1042130074F7120A96121F62023D7A74F7120A9615
:10422300121F6E023D7AC082C083121F68023D4294
:1042330074F7120A96121F74023D7A74F7120A96E3
:1042430074091212FBE0F5087808121050121F804F
:104253007401023D77C082C083121F8C023D42C0AD
:1042630082C083121F92023D4274F7120A96121FF4
:1042730098023D7A74F7120A96EAFEEBFF890874F6
:1042830001650870147900121512902BC3E493FC96
:104293007900EEFAEFFB121488023D7A74F4120AE5
:1042A3009674F91210C4E9FE8A088B098C0A8D0BE7
:1042B30074131212FB1254FC90067D125082602775
:1042C300EE851882851983F074011212FB780812A7
:1042D300126CEAF8EBF974051212FB123E93900686
:1042E3007D1242F1120C11023E8EFB90034BE0F85B
:1042F300A3E0F583888222C082C083121FC8023DD7
:104303004274F7120A96901169E0F97E00800B124D
:10431300646A540D64017001190E1244FE5003E9DE
:1043230070ED023D7A74F7120A9690116AE0F97EF5
:1043330000800B12646A548D64817001190E12445B
:10434300FE5003E970ED023D7A74F2120A96890B6E
:10435300E975F006A4240CF508E5F01237E18A0CA0
:10436300E508250CFAE5093400FB121D288A0C8B9D
:104373000DAE0CAF0DEE4F6027AC08AD09790012FE
:1043830027BA123D49E50BF0EE2508F8EF3509F998
:104393008E828F83A3A3A3A3A3A3A3A3A3123E10DD
:1043A300EEFAEFFB0252F774F6120A96EAFEEBFFFF
:1043B300121464901168E0F8E9C39840099003452A
:1043C3001254FC12146AEE2402F8EF125B0C9003F1
:1043D300471259C6900347E004F0EEFAEFFB1214BC
:1043E30070850882850983E0025FC2C082C0837939
:1043F300009003458001091254FC8A828B83E58275
:10440300458370F2023D4274F7120A96EAFEEBFF0F
:10441300EE4F6056900345125082604E8882898326
:104423007A007B00EE65827003EF6583600FAA82DA
:10443300AB83124470E5824583602F80E790034588
:1044430012447C687002EF698E828F837008123E7B
:104453000490034580031268B8123E10EEFAEFFB96
:10446300122766EEFAEFFB121D2E023D7A124474F8
:10447300221247F088828983221247ECEE22C082FF
:10448300C083900345800488828983125082600B25
:1044930088828983124B34EC4D70EC8A828B83E4DF
:1044A300F0A3F0E84960068882898380039003457E
:1044B300123D8A023D4274F7120A96900345800426
:1044C3008A828B831244F94B60257E0080010E1291
:1044D30044FE50ECEE75F006A4FCADF0EA2CFCEBC8
:1044E3003DFDEC2410F582ED12454E70E180047A17
:1044F300007B00023D7A12599BEA22124557EEC314
:10450300982274F7120A967D0080010D124553ED2F
:10451300C3985034ED75F006A4FEA8F0E8FFEA2E28
:10452300FEEB3FFFEE2410F582EF12454E70DCEDFB
:1045330075F006A4FEE8FFEA2EFAEB3FFBEA24112E
:10454300F582EB12647E4CF0023D7A12648A692292
:1045530012455722126DC4EB3400F583E0F8227440
:10456300F6120A9612158A7A007B008025EAF8EB88
:10457300F9E875F006A4F8ACF075F006E9A42C127E
:104583005970126C85A3E4125A66F0A3126C8B1255
:104593006E02902BAE12346040D37A007B00801CF5
:1045A3008A088B0974037808121206125424A37420
:1045B300FEF0A304125846A3E4126E02902BB71226
:1045C300460140DC7A007B00801D8A088B09740356
:1045D300780812120674AB1260F6741012693D74F7
:1045E300FEF0A304126E02902BBD12460140DB9035
:1045F3002BC1E493900353F012460B023E19E4934C
:10460300F8C3EA98EB9400227CE87D037A107B00E0
:104613009003C2E0F9121DE22274F0120A9674F5B7
:104623001210C48A088B09890A8C0BE9A2E0501482
:104633007508FC7509FFA2E15005D2E40246DED2FB
:10464300E30246DE1252E37003A3E06970057900CA
:104653000247ABAC0A7902AA08AB09121566E960F6
:10466300EDE50AF50C780C12105079027CFE7DFF03
:10467300AA08AB0912505E121079E960030247A938
:10468300E50AC2E5F50A9003B5E07051E50AA2E632
:10469300404B74031212FBAC82AD83AA08AB091220
:1046A3001314E9703212497F8A0C8B0DA80CA90DE3
:1046B300E8FEE9FFE8496025EE24020A0AEF123119
:1046C30070601AEE2402FCEF3400FD74031212FB37
:1046D300AA82AB83122574E50AD2E5F50A90034852
:1046E300E0F50C900368E0F50EA3E0F50F780E12E9
:1046F300104C7D017C00900348E0F9AA0EAB0F1229
:10470300151E7402121079E9F8900348E004F0E8EA
:1047130060030247A9E50AA2E55004740E800274FF
:1047230006C0E074011212FBD0E0125DD88A0E8B32
:104733000FAE0EAF0FEE4F60691247C91247E08804
:104743008289837401F07478550AA3126DCAE50C4B
:10475300126DCAA3E508F0E5091247B8E4F0E50ACB
:10476300A2E5500F74031212FBAC82AD83E824065A
:104773001247AF8E828F83A3A374FDF0A374FFF05F
:10478300E50B6015902BC4E493F8E50BC39850092F
:10479300EE2413125DABE50BF0EEFAEFFB1213B64A
:1047A30080067910800279C7740B8049FAE93400D6
:1047B300FB1225742288828983A3A3A3A31247C46F
:1047C30022125B3FA322EE2417125DBC7401F01288
:1047D30016DAEE241A125DBCEAF0A3EB22F0126D96
:1047E300BE34001247EA22F5831247F022E0F8A311
:1047F300E0F922740D1210797F08020D9274F612FB
:104803000A967A007B101262C660089003D4740182
:10481300F0802990071EE064019011F97006E0FC16
:1048230079018004E0FC79037A007B0012148890FC
:104833002BAC1248427A007B10124850023E1912E8
:10484300484622E493FC740193FD227B009003C24B
:10485300E0F9121DDC2274EC120A968A088B098C8B
:104863000C8D0D890E74141212FB12523D74161224
:1048730012FBE0F510A3E0F511121752E960077A75
:10488300FF7BFF02497C9011F8E064026003024958
:104893006F7900AA08AB0912156CA90E1215608A6C
:1048A300128B13AE12AF13EE4F70030249578E8271
:1048B3008F83A3A3A3A3A3E064018E828F83A3A307
:1048C30070691254FC8E828F83A3A3A3A3A3A3E0D6
:1048D30054186043902BC2E4938E828F83A3A3A3C7
:1048E300A3F0EA650C7003EB650D6014EA650A70CA
:1048F30003EB650B600AEA65107003EB6511701F2B
:10490300781012104CAC0AAD0BAA0CAB0D12184E5A
:10491300740212107980089003671262B0A3F074D6
:10492300FE6A700374FF6B601D804EA3A3A3E06453
:104933000360298E828F83A3A3A3A3A3E0640470DF
:10494300057AFE0248848E828F83A3A3A3A3A3E0E8
:10495300640270089003B4E06402701012497F8B04
:104963000BEA450B6006AA08AB09800DAA08AB0940
:104973009003491242F1120C110268A690037512BA
:1049830050641218122274F7120A96EAFEEBFF1211
:104993001368E9700AEEFAEFFB121374E96006EE8E
:1049A300FAEFFB80047AFE7BFF023D7A74F0120A71
:1049B300968A0A8B0B8C0E8D0F89097508001217C6
:1049C30052E979006003024B26AA0AAB0B12156C5D
:1049D300A9091215608A0C8B0DAE0CAF0DEE4F605A
:1049E300198E828F83A3A3A3A3A3E06402705590BF
:1049F30003B4E064027003024B24AA0AAB0B9003D6
:104A03004F1242F1120C1112137A8A0C8B0DA80C5F
:104A1300A90DE8497003024B2488828983A3A3A3C9
:104A2300A3A3E0A2E04003024B24750C01A2E150D2
:104A3300687901AC0AAD0BAA0EAB0F1214B8E9707A
:104A430064024B248E828F83A3A3A3A3A3E06403F6
:104A53007005750C0280528E828F83A3A3A3A3A338
:104A6300E064016003024B24900375124B348E8281
:104A73008F83124E898A0C8B0DA80CA90DE849600F
:104A8300D1902BBBE493FA88828983E0C39A50C206
:104A9300A3E06003024B2480B988828983A3A3A384
:104AA300A3A3D2E1F0EE4F603A8E828F83A3A3A338
:104AB300A3A3A3E05418602B7508018E828F83A3F0
:104AC300A3120E4C750CFE750DFF780C12104C7969
:104AD30000AC0AAD0BAA0EAB0F12157E74041210B4
:104AE30079803E900368E0650E7004A3E0650F7063
:104AF30014902BC3E493FCA909AA0AAB0B121488E4
:104B0300750801801CA90CAC0AAD0BAA0EAB0F12E1
:104B130014B8E9700C750801A909AA0AAB0B1215A0
:104B230012A9080247FBE50C2415F582E50D125D79
:104B3300BF12581C2274EA120A9674F01210C48A27
:104B43000C8B0D8C088D0974261212FBE0F514A34F
:104B5300E0F5157512069003F51250826023900359
:104B630075124B34AA08AB0912183C8A108B11EA50
:104B73004511600D8A828B83A3E070057900024E94
:104B830071E50C241DF50EE50D3400F50F850E823D
:104B930012506EF51388828983A3A3A3E0FA888257
:104BA3008983A3A3A3A3E0F9EA2400FEE439FFAABF
:104BB30008AB09121518850E82850F83124EACE0DF
:104BC30029F50BE50AA2E5500375120E7487550A01
:104BD30070177418550A6418600FE50C2417F582D2
:104BE300E50D12647E65126007790112255C808CE5
:104BF300530A78C3EE94F8EF94FF501D7900EEFA50
:104C0300EFFB124E7B601288828983A3A3A3A3A325
:104C1300A3E054186003024B7F780812104C7D0008
:104C2300124E9F121079E9F87403687003024B7FE8
:104C3300E86003024CEA7418550A7003024D9FE5BD
:104C43000AD2E0F50AA2E45004D2E1F50AA90A1255
:104C530054F5124E7B605388828983A3A3A3A3A335
:104C6300A3E05418604488828983A3A3A3A3A3E089
:104C730064017036E51045116030900375124B34B2
:104C830088828983124E898A0E8B0FA80EA90FE89A
:104C930049601788828983A3E0600F85108285119C
:104CA30083A3125FCD5003024B7FE50AF50E780E06
:104CB300121050124E92121079E9702B7C007D0075
:104CC30085148285158374FFF0A3F0850C82850D0E
:104CD30083A3A3A3A3A3A3A3A3E06003124B29A9C4
:104CE3000B1254F5121F86851482851583E0F47028
:104CF30003A3E0F460399003B4E064027003024B51
:104D03007F12522EE0FAA3E01242ED120C11EA6573
:104D1300087003EB65096003024B7FEEFAEF124262
:104D2300ED120C11851482851583EAF0A3EBF0785C
:104D33000812104C7D01124E9F121079A90AEEFA47
:104D4300EFFB12156C8A088B09A808A90990036860
:104D5300E0687003A3E0696003024E62EEFAEFFBC2
:104D630012137A8A088B09A808A909E849606E8892
:104D7300828983A3A3A3A3E06401600D888289834E
:104D8300A3A3A3A3E064027054851882851983AC9E
:104D930082AD83EEFAEFFB1213148055900361E0AA
:104DA300600FE50AF50E780E121050124E92121093
:104DB30079E50AF50E780E12105079027CFE7DFF1C
:104DC300EEFAEFFB12505E121079E96003024CEA2F
:104DD30085148285158374FFF0A3024D311216DA10
:104DE300EAFCEBFD851882851983AA82AB83122521
:104DF30074850C82850D83A3A3A3A3A3A3A3A3E01C
:104E03006401700F124B2974081212FBAA82AB8340
:104E1300122574125038125C444430F50878081295
:104E2300105074011212FB858208858309780812D9
:104E3300104C740B1212FB858208858309780812C3
:104E4300104CE513F50878081210507900EEFCEFCA
:104E5300FD1254F51214B27406121079024B7F122C
:104E63005038125DAE124EACE50BF01216F2741010
:104E73001210797F0E020D921215608A0E8B0FA805
:104E83000EA90FE84922A3A312599B12183C2279B9
:104E930001AC08AD0912599012505E22AC0BA91354
:104EA30012599012151E740222125C4CA3A3A3A3E1
:104EB3002274F0120A9674F01210C48A0C8B0DEC53
:104EC300FAEDFB750F089003F51250826014125F20
:104ED300C68A828B83E58245836007A3E070030261
:104EE3005033125038340012506EF50B8882898388
:104EF300125041E0FBEC2400FEE43BFF88828983EF
:104F0300A3A3125041A3A3E0FBECF508E43BF5098E
:104F130088828983A3A3A3A3A3A3A3E0F50EE50A31
:104F2300A2E45003750F10A2E550067408250FF58F
:104F33000F748F550A700FE50C2417F582E50D12D7
:104F4300647E650F6008790112255C025033530AB1
:104F5300707800E50AA2E4502212503812647E24CD
:104F630008FCA3E03400FD74081212FBAA82AB8391
:104F73001225747808E50AC2E4F50AE50AA2E550A9
:104F83002812503812647E28F8A3E03400F9E8248C
:104F930008FCE93400FD851882851983AA82AB8356
:104FA300122574E50AC2E5F50AAC0EA90BEEFAEF79
:104FB300FB121524E9F87403686075900368E06ECA
:104FC3007003A3E06F605EE87054E50AF50F780F95
:104FD30012105012504F121079E97054780A1210BF
:104FE3005074011212FB85820C85830D780C12100C
:104FF3004C740B1212FB85820C85830D780C1210F6
:105003004CE50BF50A780A121050A90EAC08AD094D
:10501300EEFAEFFB1214B2740612107980127404C4
:1050230068700D80B7780A12105012504F12107921
:1050330074100247F8E50C241DF582E50D22A3A3A5
:10504300A3E0FC88828983A3A3A3A322790112523C
:1050530035125DBF12506412505E221214DC7401CB
:1050630022E0FCA3E0FDAA08AB0922F583124474F5
:10507300A3E0F50A88828983A3A3E022900339126F
:1050830059F72274E8120A9674F51210C4EAFEEB7B
:10509300FF8C088D09891474231212FBE0F50F7439
:1050A300241212FBE0F512A3E0F51374261212FB8F
:1050B300E0F516A3E0F51774281212FBE0F50EA92C
:1050C3000F12152A8A108B1174011212FB7408F047
:1050D300E50EA2E450037410F0E50EA2E55004E0DF
:1050E3002408F0851882851983AA82AB8312173AA4
:1050F3008A0C8B0DEA450D7003025215EA2417F54D
:1051030082EB1252271216DAE50C241AF582E50D0A
:10511300125DAE123D8A74031212FBAC82AD83AAF8
:1051230010AB11121314E9601D12521F74031212F3
:10513300FBA882A983E50C2418F582E50D125DAE68
:10514300E8F0A3E98024E50EA2E4501FE5106E7099
:1051530003E5116F701512521FE50C2418F582E553
:105163000D125DAEE512F0A3E513F012522E1252AA
:105173003D850A82F5837402F0A3E50E125245E5DC
:105183000FF0EE850A82850B83A3A3A3F0EF850AB4
:1051930082850B83A3A3A3A3125245A3A3A3E5086C
:1051A300F0E509850A82850B83A3A3A3A3A3A3F038
:1051B300AA10AB11121518E92514850A82850B83F1
:1051C300A3A3A3A3A3A3A3F0750800E50EA2E45031
:1051D30011AC12AD13E50A2408FAE50B1247B175B9
:1051E3000808E50EA2E55014AC16AD17E50A25082C
:1051F300F8E50B3400F9E824081247AF850C8285E3
:105203000D83A3A3E510F0A3E511F0AA0CAB0D12D7
:1052130013B6740B1210797F10020D92E50C24164D
:10522300F582E50D125DBF7401F022125235125D55
:10523300BF22E50C126DC5E50D22E0F50AA3E0F5EA
:105243000B22F0850A82850B83A3A32274F2120A30
:10525300968A088B09ECFEEDFF890A79001252E366
:105263007003A3E069700479018073750B019003E7
:1052730068E065087004A3E06509601F750B00789A
:105283000B121050A90AEEFCEFFDAA08AB09121786
:105293008E7401121079E9F50B80417900EEFAEF73
:1052A300FB121560EA4B602B8A828B83A3A3A3A313
:1052B300A3A3E05418601C7508FE7509FF78081253
:1052C300104C8A828B83A3A3120E4C126BDA12103A
:1052D3007980097901EEFAEFFB12143AA90B8014D5
:1052E30012156C8A0C8B0DA80CA90D900368E0684D
:1052F300221210797F06020D9274F4120A96750831
:10530300F375090E7A101268E28B0BEA450B7003F2
:1053130012460B900353E014F0700C902BC1E493EE
:10532300900353F01215787E007F00806C8508820D
:10533300850983A3A3A3A3E06059F46056E5082479
:1053430004F582E5091262AA7049850882850983FA
:10535300A3A3A3A3A3E0640370197902850882853C
:105363000983124B34850882850983A3A31254FC55
:105373001214B8850882850983A3A3A3A3A3E064B9
:1053830001601085088285098374FEF0A30412541A
:1053930056E4F01239871237D9902BB0126A3E4087
:1053A3008C7E007F0080391216808E088F0974036B
:1053B3007808121206746B2508FC74103509FD7AFF
:1053C300C47B1412166EEA4B70DD8E088F097403CA
:1053D3007808121206125424126C85E4F0123987ED
:1053E300902BB7E493F8C3EE98EF9400501B8E080C
:1053F3008F097403780812120612542CE82407F557
:1054030082E91262AA70D680A17E007F00800A1210
:105413005437600214F0123987126A3B40F1023F9D
:10542300BA12542C8882898322746B2508F874106D
:105433003509F922EEF8EFF9E875F006A4F8AAF0B9
:1054430075F006E9A42AF9740B28F582741039F56E
:1054530083E02212545DA3A3A322F0850882850969
:1054630083A3A32274F7120A9674E11210C4ECFE0C
:10547300EDFF750800EE4F60728A828B83E0241C77
:105483001262DB12508260638A828B831254FC8522
:105493001882851983AC82AD83EA241BF582EB1253
:1054A30061ACEA241CF582EB1254F81216C2740B99
:1054B3001212FB1255007003A3E069702E740212DE
:1054C30012FBE064017024741D1212FB1242F1E01E
:1054D30064017017741D1212FB1242F3A3A3E0F8C8
:1054E3008E828F83E0687003750801A908741F0218
:1054F3003D771252353400F58312599B2212312E17
:10550300E0682274F4120A96E97024790090034D3E
:105513001242F1120C118A0A8B0BAE0AAF0B74FE06
:105523006E700374FF6F701A902BBEE4936013794F
:105533000190034D1242F1120C118A0A8B0BAE0A31
:10554300AF0B1216FE023AEF74F6120A9674F312B8
:1055530010C4121C9E8A088B09AE08AF0990036819
:10556300E06E7003A3E06F60E91216E6EA6E700264
:10557300EB6F60DEEEFAEFFB121752E970D4EE4FD9
:1055830060D0851882851983E4F0041212FBEEF0D3
:10559300A3EF1255AEE970BA74FE6E700374FF6F19
:1055A30060B0EEFAEFFB740D023E16123E9B12132F
:1055B3002C22C082C0831216FE023D427F0A020DD6
:1055C3009274F2120A96EAFEEBFF8C0A8D0B89089D
:1055D300740E1212FBE0F50974FC6E700374FF6F16
:1055E300700579000252F7790012156C8A0C8B0D45
:1055F300AE0CAF0D900368E06E7003A3E06F70060E
:10560300E509A2E650DCA909126AC8706179007A3B
:10561300FE7BFF126AC87056741855097003025650
:10562300FB780079008003123328902BB012331FCC
:1056330040030256FBE8FAE9FBEA75F007A4FAAC6B
:10564300F075F007EBA42CFB74F92AF582740E3B7A
:10565300F583E0541870D0E875F007A4F8AAF07544
:10566300F007E9A42AF974F328F8740E39F988824B
:105673008983A3A3A3A3A3A3E054186009741855B3
:105683000970030255E588828983EEF0A3EFF07475
:10569300FE650A700474FF650B600312582288824A
:1056A3008983A3A3A3A3A3A3E509F0A2E0500D88D4
:1056B300828983A3A3A3A3A3A3D2E2F07401650801
:1056C30088828983A3A3A3A3A370387401125846C5
:1056D300E054186028902BC2E49388828983A3A3A3
:1056E300A3A312581012183C8B0DEA450D60030258
:1056F30055E578007900803979020255E790036710
:10570300E080D7E0640170030255E588828983A3B2
:10571300A3A3A3A3A3E054186007902BC2E4938030
:1057230004900366E01247B8E508F00255E512332A
:1057330028902BB8E493FAC3E89AE9940040030253
:1057430055E57A007B00804BEAFCEBFDEC75F00736
:10575300A4FCAEF075F007EDA42EFD74F52CF582D4
:10576300740E3DF583125DC7E8FCE9FDEC75F01797
:10577300A4FC85F00975F017EDA42509FD74832CAD
:10578300F582740D3DF583E06E7003A3E06F609EB8
:1057930012385C902BB01237E940AD124842EC6AE4
:1057A3007002ED6B7088E875F017A4F8AAF075F035
:1057B30017E9A42AF9748328FE740D39FF7C177D39
:1057C300007900EEFAEFFB1227BA8E828F8312580C
:1057D30028900375125802A3A3A3A3A3A3E8F0A3DD
:1057E300E91258087401F0EE240E125DAB74011235
:1057F300583012083EEE240D125DABE802572D120D
:105803003D5AA3A322F0EE240F125DBC22F01258DE
:1058130019AA0AAB0B22900375E0FCA3E0FD2288D2
:10582300828983A3A3E50AF0A3E50BF022F01258C3
:105833003522902BBBE4932401F8E43400F97A0277
:105843007B00221247C4A32274ED120A968A088BA6
:1058530009890E12597940057905025947121FCE5D
:10586300AA08AB09125A4B902BAE12594A650A701B
:1058730003E9650B70077AFE7BFF125A4B902BAE40
:10588300E4125952E50A98E50B994003025945126F
:1058930059566012E50A75F006A4F875F006E50B93
:1058A3001259A1121D2EE50E6018E50A75F006A423
:1058B300F8AAF075F006E50B1259CD701A790102BA
:1058C3005947E50A75F006A4F8AAF075F006E50B4A
:1058D3001259AEE4F0A3F0E50A75F006A4F8AAF0B5
:1058E30075F006E50B12596EA3125C5A8882898300
:1058F300A3AA82AB831259BC8A828B83E0603F12D6
:105903005956603A8E108F11751200781012104894
:10591300E50EC333FCE433FDE50A75F006A4F50A8E
:10592300A8F075F006E50BA428F50B740F250AF50E
:10593300827410350B1254FA1237FA121079790067
:1059430080027907026ADE123481E822902BA612C4
:10595300646522E50A75F006A4F8AAF075F006E579
:105963000B1259A9F8A3E0F9E84922A42A125B0211
:1059730088828983A322ECFEEDFF902BB9E493F890
:10598300E9C39822F58312599B121D2E22E50C12AE
:105993006DC5E50D3400F583E0FAA3E0FB2212594F
:1059A300A9FAA3E0FB221259AEE022A42AF9740F4C
:1059B30028F582741039F58322E50EF09011FA125E
:1059C30059C622E088828983F022125B26F50CE90E
:1059D3003400F50DE50EC333FAE433FB121D2885BD
:1059E3000C82850D83EAF0A3EBF0850C82850D8391
:1059F3001259F7221247F0E8492274F4120A96EC7E
:105A0300FEEDFF740C1212FB123E04880889091282
:105A13005A4BAC0AAD0BECF8EDF9902BAE125A537E
:105A23005021E875F006A4F8AAF075F006E91259BA
:105A33006EE08E828F83125A66125A5C123E107980
:105A43000080027904023FBA1214EE8A0A8B0B22F9
:105A53001237F2C3EC9AED9B221247EC850882853C
:105A6300098322125B3B2274F6120A967E007F00A2
:105A73008028EEF8EFF9E875F006A4F8ACF075F0BD
:105A830006E9A42CF9740D28F58274101266E96AEC
:105A93007003A3E06B6057123987126A3B40D3123D
:105AA3006A367002E96F704674FE6A700374FF6BA6
:105AB300703C7E007F008003123987126A3B502EB0
:105AC30012543770F3EEF8EFF9E875F006A4F81204
:105AD3005AF8125B2D6017125B14F8E9125B0C88FD
:105AE30082125987850882850983E4F0A3F0EEFAD0
:105AF300EFFB023E1975F006E9125B0022A42AF9B6
:105B0300740B28F8741039F9223400F988088909CC
:105B130022EEF8EFF9E875F006A4F875F006E9123D
:105B23005B2622125B00E8240422A3A374FE125B0B
