:020000040000FA
:0600000002126D0207F67A
:03002B00020FA120
:03003300020E4575
:03004300020F3B6E
:030053000207356C
:03006B00020E2B57
:100083000207920101FF0503011D181D181D181D0C
:1000930018D916D3161D18E02600000000A4270067
:1000A3000000000C0000000C00010000EB19000030
:1000B30000000000A51A000000000000000000007E
:1000C300FFFF00007A4400007A44303030232323BA
:1000D30023235F44726F70706564205061636B65A6
:1000E30074735F3D5F5F5F5F2023232323232A2AEB
:1000F3002A2A2A524F4F4D20412A2A2A2A2A2A2ABB
:100103002A2A2A524F4F4D20422A2A2A2A2A0101FB
:10011300010004060000005506E80364006400B80B
:1001230001020200080000050207051E02051E0A5F
:1001330003B80B020102F1FF0296511800020206F6
:10014300120100B0423BAAB83F0000003F8C90630D
:1001530039AA0CA33A00941E3C8042633DCFFE753E
:100163003E1572313F0000803FF304353F809618FF
:100173004B2292D43EDD9B2A3F04000040FFFF7FC9
:100183007FFFFF7FFF010080341872313F1212B9E5
:10019300604612128C603DE9687008F618F618F68E
:1001A30018F622748067F71201C40909097480677D
:1001B300F72212128C601D1212B9700519191980D9
:1001C3001A121104701F121158C37003E667331912
:1001D300191940071818182208080874FFF618F6AA
:1001E30018F618F62212115860171212F87021929D
:1001F300F01213027019501720F0140808080909A7
:1002030009E7F61819E7F61819E7F61819E7F622B9
:1002130012130260E6E869701F0808E62480F608F6
:10022300E436F618547FB47F0CE654806007F6E496
:1002330018F618F622181822E9C6CC08C6CD08C647
:10024300CE08C6CFC0E0E8C0E0EAC0E0EBC0E009FA
:10025300E9F809E7FA09E7FBE6F918E6F8C3EC98C9
:10026300ED99EE9AEBC2E7F5F0EFC2E795F0500E89
:10027300600CEBCFFBEACEFAE9CDF9E8CCF8EAA2C1
:10028300E7D2E7FAEB33FB13F5F0EEA2E7D2E7FE92
:10029300EF33FFC5F013A2E730E601B313C5F0C394
:1002A300C0E0C0F07F00C39BFB605E9418600F400A
:1002B3001D14601AD0E023F9D0E0F80203968AF007
:1002C300E9486003D2F0E4AFF0FAF9F8803BEB3091
:1002D300E40D89F0EA6003D2F0E4AFF0F9CAF8EB79
:1002E30030E30D88F0EF6002D2F0AFF0E4CAC9F852
:1002F300EB54076014FBC3EA13FAE913F9E813F8A4
:10030300EF135002D2E0FFDBEDD0E0C0E030E7397D
:10031300C3E49FFFF5F0EC98FC42F0ED99FD42F049
:10032300EE9AFE42F0D0E0F9D0E0F8E5F0607AE929
:1003330023F9EE20E742D8028067C3EF33FFEC33A3
:10034300FCED33FDEE33FE80EAEC28FCED39FDEEE7
:100353003AFED0E023F9D0E0F84002801BC3EE134D
:10036300FEED13FDEC13FCEF135002D2E0FF08B8CF
:1003730000067F7F74FF802EEF3350178CF020F040
:100383000260100CBC000C0DBD00080EBE0004087A
:10039300E860DFE933E813FFEE2313FE4F4D4C8093
:1003A30008E95480FFE4FEFDFCEE33EF33F4700400
:1003B300FCFD7E80D0E0FBD0E0FAD0E0F8D0E0CFC7
:1003C300C618CEC618CDC618CCC6F92212128C7028
:1003D30004181818221212B9700D74FFF61819F6C2
:1003E3001819F61819F622E7548066F612130270EC
:1003F3000F1212F870F014F608F608F608F680D11A
:100403001212F8700CF608F608768008E6447F802E
:10041300EC12115B700C12110760BFE65480F6E416
:1004230080BB121107700519191980A5E869700CB2
:10043300763F18768018F618F6E8F922E6CDC0E084
:1004430018ECC0E0E633CD33CDD313F6E719FCE760
:10045300191933CC33C3947F400ECD9D502408E645
:100463005480F6E418F6800FF4043D14501408E6A3
:10047300447FF6187680E418F618F6D0E0FCD0E056
:10048300FD22CCD313CCFD18E4C6CBC0E018E4C6E0
:10049300CAC0E00808ED08C633E613F618E433C60D
:1004A30075F003C3CA97CA09CB97CB199C40047D47
:1004B30008802EBD000302057816B6FF0506060860
:1004C3001618C3CA33CACB33CB33CA27CA09CB37AF
:1004D300CB193CC37D08803E187D0820E75CC633FA
:1004E300C6CA33CACB33CB33DDF1D5F0EB30E77B70
:1004F300CA97CA09CB974ACB199C406F4B7025E624
:1005030020E0218066187D08C3CA97CA09CB97CB20
:10051300199CD3C633C6CA33CACB33CB3350C9DDD8
:10052300E7D5F0E1D3E4C636C608C636C608C636F4
:10053300C608C636C61818188031C3CA97CA09CB6D
:1005430097CB199CB34097C633C6CA33CACB33CBB8
:1005530033DD34D5F02EC6A2E0C640C8CA27CA0987
:10056300CB37194A70BECB3CB480B90808E63308D0
:10057300E633601F181818D0E0FAD0E0FBD0E0FC97
:10058300D0E0FD22187D08CA27CA09CB37CB193C16
:10059300D3808013F618E4B67F11F618B6FF0EF673
:1005A30018C60470D20808768080CAF618F618F6C2
:1005B30080C50012128C604F1212B96012E754808A
:1005C30066F612110470111212F8703B090909F44E
:1005D300F618F618F618F6221211587015121302AF
:1005E30008080860EAE6447FF618768018E4F618EF
:1005F300F62212130260161212F87012E4F608F6CD
:1006030008F608E65480F609090918181822EAC002
:10061300E0EBC0E0ECC0E0EDC0E0E687F0A4FBACAB
:10062300F008E687F0A42CFCE435F0FA1809E68715
:10063300F0A42C4B60027401CA35F0FCE433FB09CF
:10064300E687F0D2F7A42CCB35F0FC1908E687F047
:10065300A42BCC35F0FBE433FD0819E687F0D2E791
:10066300A42C4ACB35F0CD3400FC09E687F0D2E761
:10067300A42DCC35F0FDE433FA0918E687F0D2F760
:10068300A42CCD35F0CA3400FC08E687F0D2E7D2BB
:10069300F7A42ACC35F07A7E20E70B0ACB33CBCDF7
:1006A30033CDCC33CC33CB3350147004ED30E00E68
:1006B300D2F1E4CD3DCDCC3CCC3B5005DA05C2F1C3
:1006C300EB547FC63308E63392F0FBE73309E73395
:1006D300C39A502D2B70190C0D4C4D70151806E64E
:1006E30008C333700D20F10AA2F013F6E418800B4F
:1006F3004024E4F630F002768018F618F618F680F7
:1007030024D33B14501074FFA2F013F6187680E440
:1007130018F618F6800FA2F013F618E63303F6184E
:10072300ECF618EDF6D0E0FDD0E0FCD0E0FBD0E035
:10073300FA22C0E074F2120B16A2AFE433FED2AF7A
:10074300E5A7FFE5A1F5085F5410600612219B752C
:10075300A1EFE5085F540860081221A175A1F78095
:1007630024E508A2E092F0EFA2E082F05017906136
:1007730098E0F890092EE0C398A2D265D0335002D6
:10078300E8F075A1FEEEA2E092AF7F01020BCDC0AF
:10079300E074F2120B16A2AFE433FED2AF9061A461
:1007A300E0F8759B00E59158540860087591F712BD
:1007B30021E98023E59158541060087591EF1221C7
:1007C300EF8014E591A2E092F0E8A2E082F05007F6
:1007D300E0C2E0F01223339061A3E0F8E5E9585456
:1007E30004600E12230975E9FB906193E0A2E640D1
:1007F300F28092C0E074F2120B16A2AFE433FED281
:10080300AF9061A5E0F8E5BF585404600675BFFBDF
:1008130012234B020788C3E498F8E499F912085AA3
:100823008026C3E49AFAE49BFBE920E7E912085A1D
:10083300E498F8E499F922C3E498F8E499F91208E2
:100843005AE498F8E499F9C3E49AFAE49BFB22EB9F
:1008530020E7CFE920E7E0B90010BB0008E88AF001
:1008630084F8AAF022E4FBC8FA22EB70227B10C8BA
:1008730033C8C933C9335007C39AC3DBF280069A1E
:1008830050012ADBEAC833F4C8C933F4C9FA227524
:10089300F008E4C833C8C933C933C99AC99B5004A3
:1008A300C92AC93BD5F0ECFBC833F4C8E4C9FA2222
:1008B3001208F320F01430E72B74FFFCFBFA747F6B
:1008C3008022E4FCFBFA7480801AB48008BC00F236
:1008D300BB00EF800F50EBF9E4C39AFAE49BFBE40F
:1008E3009CFCE499C6CC18C6CB18C6CA18C6F92214
:1008F300E4C9C608CAC608CBC6D3330308CCC6337B
:1009030092F0C3947F402E94184019C9B90704CAC2
:10091300CBCC225025C309CA33CACB33CBCC33CC7F
:1009230033D9F422F4600DC9CCC313CB13CBCA1350
:10093300CAD9F6CC22E4FCFBFA2214FCFBFA220807
:100943000808EAC0E0EBC0E086F0E7A4FA180986DD
:10095300F0E7A42AFA180986F0E7A42AFA18098608
:10096300F0E7A42AFA1986F0E7A4FBE5F02AFA19BE
:100973000886F0E7A42BFBE5F03AFA190886F0E7BE
:10098300A42BFBE5F03AFA18180986F0E7A4C5F0A2
:100993002BFBE43AFA1908E7C5F0C6A426F6E5F0FE
:1009A3003BFBE43AFA1886F0E7A4F6E5F00826F6EE
:1009B300E43B08F6E43A08F6D0E0FBD0E0FA22087C
:1009C3000808E630E7111211811209DA080808C68F
:1009D3004480C618181822181818E9799EC608CA40
:1009E300C608CBC608CCC6C370207996CACBCC70D8
:1009F30019798ECBCC70137986CC700EF9802ACA04
:100A030033CACB33CBCC33CC331930E7F2CCCBCA9C
:100A13003350147004EA30E00DE4CA3ACACB3BCB3E
:100A2300CC3CCC500209C3E913C6CC182313C6CB64
:100A330018C6CA18C6F922E4CFC0E0E4CEC0E0E489
:100A4300CDC0E0E4CCC0E075F020C3E633F608E6A1
:100A530033F608E633F608E633F6181818EC33FCD9
:100A6300ED33FDEE33FEEF33FFC3EC9709ED97094A
:100A7300EE9709EF97191919400FFFEC97FC09ED51
:100A830097FD09EE97FE191906D5F0BEECF709EDAF
:100A9300F709EEF709EFF7191919D0E0FCD0E0FDDB
:100AA300D0E0FED0E0FF222518C582C0E0E519346E
:100AB300FFC583C0E0E518C3958224F810AF08850D
:100AC30083198582188008858319858218D2AFCE51
:100AD300F0A3E520F0A37808E608F0A3DEFAEFF030
:100AE300A3E58124FAF8E608F0A3E608F0A3E608F4
:100AF300F0A30808E608F0A3E608F0A31581158122
:100B0300D0E0FED0E0F8158115811581E8C0E0EE54
:100B1300C0E022C0D02518C582C0E0E51934FFC566
:100B230083C0E0E518C3958224F310AF08858319C9
:100B33008582188008858319858218D2AFC8F0A3EF
:100B4300E9F0A3EAF0A3EBF0A37908E709F0A3D84F
:100B5300FAECF0A3EDF0A3EEF0A3EFF0A3D0E0F0F6
:100B6300A3D0E0F0A3D0E0F0A3E520F0A3E5F0F0FC
:100B7300A3221212EDB90003020BB7E4900301782C
:100B830087790B8002F0A3D8FCD9FA900D87AA824B
:100B9300AB83900086780B79028015E493A3AC8233
:100BA300AD838A828B83F0A3AA82AB838C828D83ED
:100BB300D8E9D9E775822A7583B8740312101F75B3
:100BC300824B758326740012101F85198385188242
:100BD300E0C0E0A3E0F9A3E0FAA3E0FBA37808E018
:100BE300F608A3DFFAE0FCA3E0FDA3E0FEA3E0FF29
:100BF300A3E0C0E0A3E0C0E0A3E0F5D0A3E0F520CC
:100C0300A3E0A3F5F010AF08858319858218800847
:100C1300858319858218D2AFD082D083D0E0F8D0F3
:100C2300E032E4730875F0108E1A8F1B85821F85DE
:100C3300831E851882851983E0CEA3E0CF851F82AA
:100C4300851E83EBC9EAC8EDCBECCAC3E833C8E918
:100C530033C9EA33CAEB33CBC3EA9EF51DEB9FF5E9
:100C63001CB35004AB1CAA1DEC33CCED33CDD5F033
:100C7300DAAE1AAF1B2212128C601C1212B9601763
:100C830012130270071212F87001D322C0D012128D
:100C9300F87006D0D0B322C32233D0D0501430E042
:100CA300F6C3E7960809E7960809E7960809E79661
:100CB300B32220E0D5E6970809E6970809E69708E6
:100CC30009E697B32212128C601B1212B960161236
:100CD300130270071212F8600CB322C0D01212F87C
:100CE3007005D0D022C32233D0D0501330E0EBC3F1
:100CF300E7960809E7960809E7960809E796222088
:100D0300E0E4E6970809E6970809E6970809E697F5
:100D130022D083D082ECC0E0EDC0E0E493A3FCE4F6
:100D230093A3FDED4C600D120DECEC24FFFCED34B0
:100D3300FFFD80EFE493A3FCE493A3FDED4C600D72
:100D4300120EE6EC24FFFCED34FFFD80EFD0E0FD56
:100D5300D0E0FCE493A3C0E0E493C0E022D083D0CE
:100D630082E9C0E0E493A3C386F0C5F095F0F908E7
:100D7300E493A386F0C5F095F0700BE493A3C399B5
:100D83004005E9048002A3E475F002A42582F582FC
:100D9300E5F03583F583D0E0F9E493A3C0E0E49371
:100DA300C0E022851983851882E0A3FEE0A3F52025
:100DB3007808E0A3F608DFFAE0A3FFE0A3C0E0E0D1
:100DC300A3C0E0E0A3C0E0E0A3C0E0E0A3C0E01064
:100DD300AF08858218858319800885821885831951
:100DE300D2AFD083D082021025C0E0C3E49396082B
:100DF3007401939618400FE4936670080874019386
:100E0300661870007019A3A3C3E493960874019342
:100E13009618A3A3400DD0E0D0E0D0E0020D50A37C
:100E2300A3A3A3A3A3D0E022C0E074F2120B16E5A0
:100E330089A2E15003122075758900C2C57F0102A2
:100E43000BCDC0E074F2120B16E58BA2E050031237
:100E53002075758B00C2E880E474048004740280FA
:100E630000CCC0E0EDC0E0E518C39CCCAD19500147
:100E73001D10AF068C188D1980068C188D19D2AFF2
:100E8300120F80D0E0FDD0E0FC2274028000CCC0C1
:100E9300E0EDC0E0E518C39CCCAD1950011D10AFC7
:100EA300068C188D1980068C188D19D2AF120F5E1F
:100EB300D0E0FDD0E0FC2212128C60251212B96042
:100EC3002012130270030212F8080808E766701074
:100ED3001819E766700A1819E76670041819E766A7
:100EE30022F422C0E0C0F088F0E49366700808742E
:100EF300019366187000A8F0A3A3700BD0F0D0E0A4
:100F0300D0E0D0E0020D50A3A3D0F0D0E022D083F4
:100F1300D082CCC0E0E493A360061210001470FAF0
:100F2300E493A360061210EE1470FAD0E0FCE4938D
:100F3300A3C0E0E493C0E022C0E074F2120B16A257
:100F4300AFE433FED2AFC2C0E5D1A2E45003122115
:100F530011EEA2E092AF7F01020BCDCAC0E0E49391
:100F6300A3C582CCC582C583CDC583F0A3C582CC7E
:100F7300C582C583CDC583DAE5D0E0CA22CAC0E005
:100F8300E0A3C582CCC582C583CDC583F0A3C5824A
:100F9300CCC582C583CDC583DAE6D0E0CA22C0E0E2
:100FA300C0D0E8C0E0E9C0E0E5A8D2AFC2C7A2E77D
:100FB300A2E792AFD0E0F9D0E0F8D0D0D0E032C0D1
:100FC30008C3E096F50808A3E096420808A3E09654
:100FD300420808A3E09645087001D3D0082270099F
:100FE300080808226016181818C6C333C608C63383
:100FF300C608C633C608C633C6D5E0EA22C0E0E455
:1010030093A3D39C5010E493A3C39C400AD0E0D095
:10101300E0D0E0020F2EA3A3A3D0E022C09FF59F50
:10102300E473D09F22D083D082C09FE493C0E07446
:101033000193C0E0740293F59F227404800A740341
:101043008006740280027401C0E0F404121058D0C8
:10105300E01212C8222518F58210AF08F5184002D5
:1010630015198008F51840021519D2AF8519832286
:10107300BB0102E722C082C08389828A83BB00034B
:10108300E08002E493D083D08222C0D0251810AF31
:1010930008F518500205198008F51850020519D2F1
:1010A300AFD0D0226016080808C6C313C618C613EB
:1010B300C618C613C618C613C6D5E0EA22C3E0C6CF
:1010C30096F608A3E0C696F608A3E0C696F608A32C
:1010D300E0C696F622251810AF08F5184002151938
:1010E3008008F51840021519D2AF22C0E0E493A39B
:1010F3006C7009D0E0D0E0D0E0020F2EA3A3D0E0C3
:1011030022181818E6084608700AE608C333700563
:10111300E633F4220822E76670100809E766700ACE
:101123000809E76670040809E76622E0667010089C
:10113300A3E066700A08A3E066700408A3E06622D1
:10114300C3E09608A3E09608A3E09608A3E096A25E
:10115300D265D03322191919E7094709700AE7093B
:10116300C3337005E733F4220922C3E096F008A3E2
:10117300E096F008A3E096F008A3E096F022181892
:1011830018E4C396F608E496F608E496F608E4969F
:10119300F622E026F608A3E036F608A3E036F608C2
:1011A300A3E036F622E026F008A3E036F008A3E039
:1011B30036F008A3E036F022E627F60809E637F60C
:1011C3000809E637F60809E637F622700422600DAF
:1011D30018C6C333C608C633C6D5E0F41822E6578B
:1011E300F60809E657F60809E657F60809E657F63A
:1011F30022E056F608A3E056F608A3E056F608A345
:10120300E056F622E647F60809E647F60809E647F8
:10121300F60809E647F622E056F008A3E056F00880
:10122300A3E056F008A3E056F022600D08C6A2E73B
:1012330013C618C613C6D5E0F322C6F4C608C6F40F
:10124300C608C6F4C608C6F4C622C3E7960809E76B
:10125300960809E7960809E79622C3E09608A3E0F3
:101263009608A3E09608A3E0962275D00075814006
:1012730075180175190300020B75E6F008A3E6F073
:1012830008A3E6F008A3E6F022E6084608C31346DF
:1012930008336002E633F422600C08C6C313C61891
:1012A300C613C6D5E0F422E0F608A3E0F608A3E0EF
:1012B300F608A3E0F622E7094709C3134709336099
:1012C30002E733F422CAC0E0E6F0A308DAFAD0E07A
:1012D300FA22EAF0A3EBF0A3ECF0A3EDF022E0FA9C
:1012E300A3E0FBA3E0FCA3E0FD22E5C754F844011F
:1012F300F5C7790122E7C33319471947194722E68E
:10130300C333184618461846222518F582E43519C2
:10131300F58322C2AF75D69F02000022121028F374
:1013230081021210284782021210286082021210D2
:1013330028868202121028C1820212102805830215
:101343001210282C83021210287D83021210282DDC
:101353008402121028E58402121028AD85021210AF
:10136300288A86021210281087021210281F87026B
:101373001210282A870212102833880212102844D8
:101383008802121028BA88021210284C89021210FF
:1013930028A489021210286A8A021210289B8A0242
:1013A300121028E08A02121028ED8A0212102881F6
:1013B3008C02121028E48D02121028008F021210E2
:1013C300286A91021210287591021210287F910247
:1013D3001210288A91021210289491021210289E4A
:1013E3009102121028A99102121028B4910212102E
:1013F30028E591021210280992021210282D920258
:10140300121028929202121028D69202121028F279
:101413009202121028699302121028A1930212104B
:1014230028ED93021210284A94021210282C9602D7
:10143300121028B2960212102883970212102893D2
:101443009A02121028E89A02121028149B02121012
:1014530028609C02121028B09C02121028059D02DD
:10146300121028069E021210289E9E021210282097
:101473009F02121028C09F02121028C529001210C3
:1014830028FE2900121028D82B00121028172C0030
:10149300121028612C00121028062D001210286546
:1014A3002D00121028992D00121028062E0012105C
:1014B30028232F001210282B3000121028C13000CF
:1014C300121028083400121028B134001210288D8D
:1014D3003500121028EE35001210280B37001210B9
:1014E30028353900121028EC3900121028F639007B
:1014F300121028293A00121028F03A001210288BF3
:101503003B00121028F03B00121028193C00121067
:10151300283B3C001210286A3E00121028413F006D
:10152300121028853F00121028F23F00121028AD38
:101533004000121028DF400012102823410012102F
:1015430028564100121028AB410012102800420017
:10155300121028944200121028F642001210285E3E
:101563004300121028074500121028EF45001210FF
:10157300283147001210285F49001210281F4A0023
:101583001210284E4C00121028F14C001210282F74
:101593004D00121028DB4E00121028EF4E001210DF
:1015A30028F94E00121028234F001210282F4F0045
:1015B3001210284E4F001210280550001210284414
:1015C30050001210284E5000121028025100121021
:1015D30028015200121028FA5200121028975300C3
:1015E3001210283954001210285054001210288762
:1015F3005400121028A55400121028E954001210A8
:10160300280E5500121028F45500121028605600B9
:10161300121028DA5600121028E957001210282851
:1016230059001210288A5900121028445A00121027
:1016330028675A001210283B5B00121028865B00B3
:10164300121028C85B001210281F5C0012102856C5
:101653005C00121028845C00121028BD5C0012107C
:1016630028E25C001210286A5D001210288D5F00CA
:10167300121028EC5F00121028806000121028EC72
:101683006000121028406100121028E1DC031210E0
:101693002820DD031210288EBB01121028E8BB019D
:1016A30012102844BC0112102890BC01121028AB60
:1016B300BC01121028DCBC01121028F9BC01121065
:1016C3002805BD0112102879BE0112102892BE010F
:1016D300121028F9BE011210280CBF011210281A8B
:1016E300BF01121028CEBF01121028B2C001121080
:1016F30028B8C1011210283EC20112102848C201A5
:10170300121028B5C201121028CCC201121028FEF3
:10171300C20112102837C30112102861C30112102D
:1017230028C2C301121028E2C30112102800C40109
:1017330012102846C4011210286CC501121028B9D2
:10174300C501121028E8C5011210285EC601121047
:101753002886C601121028BFC601121028CDC60163
:1017630012102825C70112102874C701121028B3BC
:10177300C701121028E3C7011210280FC801121065
:10178300281AC80112102838C801121028FAC801F3
:1017930012102804C9011210283FC901121028553C
:1017A300C9011210285EC901121028B3C901121011
:1017B30028C7C901121028D5CA01121028E8CA0186
:1017C300121028FDCA011210289FCB0112102822E3
:1017D300CC01121028E0CC01121028EBCC0112101E
:1017E3002811CE011210282DCE011210287FCE0110
:1017F300121028BECE01121028D3CE0112102815C4
:10180300CF0112102862D101121028E0D101121069
:101813002853D20112102875D4011210288DD40137
:1018230012102890D4011210289CD401121028B051
:10183300D401121028B8D401121028EBD4011210CD
:10184300289BD50112102811D60112102884D60125
:1018530012102838D701121028EDD7011210280CC6
:10186300D801121028ACD801121028B8D8011210D0
:1018730028E3D801121028E6D80112102850D90104
:1018830012102878DA0112102850DB01121028DB1D
:10189300DB01121028F4DC01121028B1DD01121053
:1018A30028EADD011210281BDE01121028BBDE011D
:1018B300121028EBDE01121028C6DF011210285F78
:1018C300E001121028EAE0011210289BE101121036
:1018D300281DE2011210284FE20112102890E201A4
:1018E3001210283EF3021210289FF302121028DC74
:1018F300F3021210282FF40212102858F6021210C5
:101903002828F80212102895FB02121028CCFB029B
:10191300121028EAFB0212102860FC021210288819
:10192300FC02121028B9FC02121028E9FC02121062
:101933002845FD0212102810DD021210288EDD0248
:10194300121028C4DD0212102830DE02121028A360
:10195300DF02121028BFDF0212102804E002121067
:101963002891E002121028EAE00212102816E2027F
:1019730012102824E30212102881E302121028ED2A
:10198300E3021210284EE4021210288FE402121010
:10199300283CE5021210284EE60212102891E602B6
:1019A300121028DFE60212102816E702121028B9D7
:1019B300E70212102874E802121028BDCF03121098
:1019C30028CECF031210281FD00312102864D0038F
:1019D3001210280CD103121028087F001210288936
:1019E300CC03121028E1CD03121028EBE8021210E9
:1019F300289AE902121028BAE902121028DAE90239
:101A0300121028EEE9021210284EEA021210287E64
:101A1300EA0212102808EC02121028B1EC0212108C
:101A23002893ED02121028E6ED021210282AEE0286
:101A33001210286DEE02121028D8EE02121028F9A7
:101A4300EE021210287CEF02121028B1EF021210DE
:101A53002821F002121028B8F1021210288EF20287
:101A6300121028D0F2021210282AF30212102809A9
:101A7300C9031210282AC90312102860CA031210BE
:101A8300288ACA0312102861B503121028DCB50393
:101A9300121028E7B50312102808B603121028FB0A
:101AA300D002121028FED002121028B8D102121050
:101AB30028E3D10212102829D2021210284ED20292
:101AC3001210286FD202121028A3D202121028DBA0
:101AD300D20212102804D40212102833D402121096
:101AE3002853D402121028EBD402121028AED502C8
:101AF300121028E3D5021210284BD702121028EE39
:101B0300D702121028E6D8021210281BD90212108D
:101B1300287BD9021210283BDA0212102869DA0254
:101B2300121028F0DB0212102871DC02121028A414
:101B3300DC021210280080031210280A80031210FE
:101B430028568003121028C48003121028E580034E
:101B5300121028FC8003121028AC8103121028698C
:101B63008403121028728403121028C584031210F0
:101B730028EE84031210284C8503121028DD8503F8
:101B8300121028198603121028658603121028D70D
:101B930086031210285D87031210289C87031210F6
:101BA30028DD8703121028148803121028268803BF
:101BB300121028388803121028578803121028603F
:101BC3008803121028188903121028588903121049
:101BD300281D9C03121028F29C0312102818B3012D
:101BE3001210281D9D03121028369F03121028552A
:101BF3009F03121028C6C403121028FCC40312103A
:101C03002847C50312102895C603121028C5E20100
:101C130012102810E4011210284CE40112102803BA
:101C2300E6011210282CE601121028C4E801121054
:101C33002804E901121028A5EA011210283FEB013C
:101C4300121028A7EB0112102834EC011210286C93
:101C5300EC011210284F81021210283FEE011210DE
:101C630028DEEF011210282DF2011210285BF20179
:101C730012102887F20112102890F201121028EB9B
:101C8300F20112102881F301121028AAF601121092
:101C9300282FF701121028A5DE031210283BDC03BE
:101CA30012102800AC0312102815AC03121028B22E
:101CB300AC03121028EEAC0312102805AD0312106A
:101CC300282CAD0312102871AD03121028A2AD0306
:101CD300121028DAAD0312102862AF0312102894F1
:101CE300D203121028CAD203121028E6D20312100C
:101CF3002828D30312102838D303121028CDD30376
:101D03001210287A61001210288361001210288AA9
:101D13006200121028D46200121028C4630012104B
:101D230028CD63001210281664001210284F650096
:101D33001210285865001210289F650012102848B9
:101D430066001210285468001210285D68001210F3
:101D530028D168001210284C6C00121028586C000F
:101D6300121028B86C00121028D56C00121028DB52
:101D73006D00121028E46D001210282F6E0012104F
:101D830028A77000121028BD7000121028E87000F8
:101D9300121028AE7100121028C07100121028858D
:101DA3007600121028907600121028EC760012109C
:101DB30028B27700121028F07700121028847800D8
:101DC3001210280579001210286EDD03121028293D
:101DD300C10212102881C10212102833C20212104C
:101DE30028D7C20212102831C302121028AAC30234
:101DF300121028BEC302121028A1C50212102822F5
:101E0300C60212102859C60212102805C802121061
:101E1300281CC80212102867C8021210287DC802A5
:101E23001210288AC802121028BEC802121028D421
:101E3300C8021210285AC90212102865C9021210CA
:101E430028BEC90212102818CA021210286BCA022F
:101E530012102875CB02121028D3CD021210287845
:101E6300CE02121028BACE0212102843CF0212104B
:101E73002865CF0212102868CF021210286BCF02F8
:101E8300121028FECF0212102827D0021210285356
:101E9300D0021210288ED00212102891D0021210F4
:101EA30028A4D002121028CBD00212102857DB032B
:101EB30012102863DB031210289DDB03121028493C
:101EC300B10212102874B10212102842B202121089
:101ED30028C8B20212102831B30212102879B302B3
:101EE3001210280AB4021210289FB40212102830CC
:101EF300B50212102871B502121028FCB902121093
:101F0300288ABB02121028C3BB0212102871BC021C
:101F13001210281EBD02121028AEBE021210285C39
:101F2300BF0212102873A0021210282FA102121050
:101F330028ACA102121028BBA10212102844A2024D
:101F4300121028BCA202121028CBA302121028F4EC
:101F5300A3021210289CA402121028EFA40212104C
:101F6300285BA50212102899A6021210283AA7028C
:101F7300121028A2A70212102838A902121028EC66
:101F8300A90212102889AA02121028EAAA02121022
:101F93002864AB0212102869AC02121028F9AD02B2
:101FA30012102893AE0212102804AF02121028DE7A
:101FB300AF0212102893BD03121028E3BD031210C1
:101FC300283FBE031210288ABE03121028E5BE0361
:101FD3001210288DBF03121028F6BF031210280316
:101FE300C00312102870C203121028A1C2031210DA
:101FF300285BC303121028C1C30312102832C40381
:10200300121028B5B80312102841BA03121028562B
:10201300D90312102867D90312102807DA03121004
:1020230028DACA03121028E8CA03121028BBDE03F9
:10203300121028C1DA03121028D1DA03121028EC87
:10204300DA031210284DDB0312102852D8031210A2
:1020530028D7D8031210283DD90312102840D703DC
:1020630012102862D703121028CCD703121028D7D6
:10207300D7031210281BD803121028A0A403121090
:1020830028AEA403121028F1A4031210280BA503F1
:1020930012102891A503121028B6A503121028D3F5
:1020A300A503121028F0A50312102815A603121079
:1020B300284AA60312102893A6031210280AA7037E
:1020C300121028C1A70312102847FC01121028552B
:1020D300FC01121028CFFC01121028B3FD011210CD
:1020E300286CFF0112102847DE03121028D1790053
:1020F3001210283E7A00121028FF7A001210286F5F
:102103007B001210287A7C00121028F27D00121036
:1021130028567E00121028AB7E00121028B47E00D1
:10212300121028C37E00121028D67E00121028EC4D
:102133007E00121028F57E001210288CF701121071
:1021430028E1F701121028DDF9011210280FFA0116
:1021530012102831FA011210284AFA0112102863CA
:10216300FA011210286DFB0112102808FC0112104D
:102173002829D1031210284DD10312102866D10348
:10218300121028A5D103121028D8D1031210280841
:10219300D20312102870D20312102873D203121024
:1021A300287DD2031210288AD203121028ECBA0316
:1021B30012102814BB0312102855BB0312102867F2
:1021C300BB0312102882BB03121028EABB031210B0
:1021D30028F6BB0312102855BC0312102879BC0340
:1021E3001210283ABD0312102847BD0312102858B5
:1021F300BD03121028ADDD03121028CADD0312102F
:10220300281C93031210287C940312102882940331
:10221300121028999403121028BA9403121028D08C
:102223009403121028E494031210286395031210E8
:1022330028C895031210285E9603121028379703B7
:1022430012102847970312102856970312102828B4
:10225300DA031210284CDA0312102874DA0312106E
:10226300289CDA0312102891FD02121028B8FD02EF
:10227300121028D9FD021210284BFE021210281248
:10228300C0031210282BC00312102842C0031210DF
:10229300284BC00312102869C00312102873C0030F
:1022A3001210287DC00312102890C003121028E5D5
:1022B300C0031210281EC1031210284CC1031210B0
:1022C300289DC103121028E9C10312102804C20378
:1022D3001210280EC2031210281FC2031210286501
:1022E300C20312102890DC031210288189031210F4
:1022F30028AD8903121028CB8903121028DE890325
:10230300121028F98903121028588A0312102886FC
:102313008A03121028958E03121028DA8F031210E5
:10232300280C9003121028789003121028C19103EF
:10233300121028E99103121028FE91031210280E9F
:1023430092031210284E92031210289A920312102D
:1023530028AA9203121028D7D303121028E7D30315
:1023630012102805D40312102820D4031210284772
:10237300D40312102868D40312102882D403121035
:1023830028BAD403121028DDD4031210282ADD033F
:1023930012102879A80312102880A8031210289D70
:1023A300A903121028CDA903121028F3A9031210B0
:1023B3002826AA0312102838AA0312102874AA0385
:1023C300121028DAAA0312102816AB031210285D84
:1023D300AB031210288AAB03121028ABAB03121005
:1023E3002830CE0312102842CE031210282DCF031B
:1023F300121028BACF031210282DD6031210289FCB
:10240300D603121028DDD6031210281ED70312108C
:10241300286FAF031210288BAF03121028DAAF0313
:10242300121028F6AF0312102827B0031210283712
:10243300B0031210281FB10312102829B103121080
:102443002836B10312102849B2031210285DB203D3
:1024530012102866B203121028879703121028AEB1
:102463009B03121028B39B0312102869DE0312107A
:102473002881B2031210280FD503121028DADB03C8
:10248300121028F8C603121028D1FF01121028AE2B
:10249300A003121028E9DD031210281FDE03121017
:1024A3002887DE03121028CFB20112102887B20149
:1024B300121028C5B10112102838B1011210282BAF
:1024C300B10112102839AE011210288BAB01121082
:1024D300285FAA01121028B3A901121028C580028F
:1024E30012102864800212102804A801121028BFB9
:1024F300A501121028128002121028008002121067
:102503002846A501121028EDA40112102881A40168
:1025130012102858A4011210284BA20112102817D8
:10252300A201121028E4A101121028C8A10112105F
:1025330028EEA001121028A6A001121028DB9E018C
:102543001210285B9E01121028589E011210285F5A
:102553009D011210282D9D011210286A9C01121052
:1025630028959A01121028269A01121028F8990129
:10257300121028F59901121028E299011210284926
:10258300BA011210282BBA01121028E0B801121058
:10259300283DB801121028EAB6011210287A9901D1
:1025A3001210286999011210284A98011210281450
:1025B30098011210289BB401121028D7970112100A
:1025C30028789701121028479701121028029401C6
:1025D300121028A4B301121028ACEC01121028F336
:1025E30092011210288292011210284792011210B0
:1025F30028129201121028069201121028669101E6
:10260300121028AD9001121028808E011210280C90
:102613008C01121028CA8B01121028958A011210FE
:10262300284A8A011210287C8901121028D38801B4
:102633001210286F8801121028A988011210288807
:10264300B3011210280C9D0300000080FB0001362B
:10265300360101000102010001030100010401062A
:102663000605020000070100340801000F090401F8
:10267300010D0100FF0E0800001702000019010000
:10268300FF1A0100011B0100FE1C0100081D0200CE
:10269300001F0100012001000121020000230100AD
:1026A3000F24020000260100012701000828020070
:1026B300FF2A0100072B0102402C0100002D01001D
:1026C300012E0100012F0100FF30010B1C31080016
:1026D300003A0100083B01000F2F010000030071C5
:1026E30000300160001100700031022003500480AB
:1026F30000100061000000140063007300720062A8
:102703000043000000130006000000000004001254
:102713000000000000000000000400040037003740
:10272300003C0244000000000000000000650000BF
:102733000035008100000005000000830000000355
:1027430002710230016002110270020102020202F0
:10275300028002100261023A0041006302730272B6
:102763000262024302000213023800000200020464
:1027730002120200020002000200020402040237F5
:102783000037003C024402000239000002000265E7
:102793000200023502810200020502820283020066
:1027A3000201037103010301030103010301032276
:1027B30003020301031003000300030003000300EB
:1027C3000300030003420300032403060300030082
:1027D3000304031203250323032503230304030430
:1027E3000300030003000344030003000323030067
:1027F3000365032100350381030003050300030080
:102803000300030101710101010101110101013102
:1028130001010101018001100161013B001400630A
:102823000173017201620143010001130106013DBD
:10283300013500040112010001000100010001043F
:10284300010401330133013C01440132013600002C
:1028530001000165010001350081010001050182CC
:10286300018301000136000100060000000F000093
:10287300000000000000000000000003FFFF000054
:102883000403FFFF0000FFFF0FF4010005C404036E
:1028930020000100030B0000000000000000030102
:1028A3000F0100611F0200D71E0300DD1E0400E3B9
:1028B3001E0500E91E0600F51E11000D1F1400136E
:1028C3001F1500071FFFFF000003EAF5E5D5D5C577
:1028D300B5A5959585857575656555554545353515
:1028E30025251515053317631739173F175D17513D
:1028F300174B1769176F177517811745172D17276B
:10290300170AFF1402C91405DB1407CF140CAB1408
:102913000DBD14FF000000160F00000B150B020085
:1029230002220F320000061D182F183518FD163B22
:1029330018F71603177D189B18A11883188F188989
:10294300180C0E020B040B0A0708000F3030161880
:102953001920231A1C1E30000119161816161523E8
:10296300030000034948424D181725050200383C6F
:102973003E363B3B352B432C303017181921301B87
:102983001D1F3071184118471853184D1857177BDE
:1029930017951887178D1702040201010101090217
:1029A30000000000000000BE040A0E00E80304005B
:1029B30015002800040C05030908FF1E1E0A040F56
:1029C300100C74F7120AAAE99003B0F0900365E4BF
:1029D300F01223E19003B5E4F0A3F09003B1F0A368
:1029E300F01216371223E7900334E4F0A3F0902992
:1029F300C293FA790212244702565B74F2120AAAAE
:102A0300EAFEEBFF548060699003B0E0F9121B7794
:102A13008A088B09EA4509604F7C0080010CEC753C
:102A2300F003A4F8A9F0740428F582742939F58316
:102A3300E493F4602CE493F88508828B83E0687058
:102A4300DCAA08EC75F003A4F8740528F582742950
:102A530039F583E493C0E0740193F583D082120CBB
:102A630025AA08AB09121B6BEEFAEF6480FB022B5D
:102A7300CBEF5420601D1215598A088B09EA4509CA
:102A8300600A1214BDAA08AB09121B6BEEFAEF64BD
:102A93002080DAEEA2E0501A90036AE0640F700B14
:102AA3007900121487E96003122BCEEE6401FAEF6A
:102AB30080BB54207003022B99750C001240A08B2D
:102AC30009EA450970107C027D007A207B0090039F
:102AD300B0E0F9121CC17C0079047A007B00121566
:102AE300358A088B098018850882850983A3A3A3E7
:102AF300A3A3A3A3A3A37401F0850A08850B09E587
:102B0300084509606D7C007904AA08AB09121535E4
:102B13008A0A8B0B750C01E5082404F8E509123EBB
:102B23004424FFF0A3E034FF12613770CC850882A0
:102B3300850983A3A3A3A3A3A3A3A3A3A3E06401DE
:102B430070A5850882850983A3A3A3A3A3A3E05447
:102B5300047094850882850983A3A3A3A3A3A3A3D5
:102B6300A3A37406F07AB7850882850983122CFA29
:102B730080871215057C0079017A007B00121535D8
:102B83008B09EA45097009E50C70057A20124FFAA2
:102B9300EE6420022AB1EF5402600B121631EEFAF2
:102BA300EF6402022A70EF5404601912519112501B
:102BB300B179019003631254151213CDEEFAEF6449
:102BC30004022A707A007B00022E01900E1D12343B
:102BD3009812149F22C082C08374EA1210D88518F9
:102BE30082851983AA82AB83794B12241D74081240
:102BF300130C7402F0740912130CAA82AB8379507C
:102C030012241D741312130CE41255E412243B74A2
:102C1300160245BE74F7120AAA74E11210D8EAFE2E
:102C2300EBFFEE4F6033851882851983AC82AD8349
:102C330012157D740612130CE0601E741712130C28
:102C4300E0FD740112130CE0FCEEFAEFFB790012C5
:102C53002585E9600479A48002790002565674F64A
:102C6300120AAAEAFEEBFF8E828F83A3A3A3A3A378
:102C7300A3E05440601B125AD3122DC860067AFF9A
:102C83007BFF801A8E828F8312424AFAA3E0FB8075
:102C9300031215A174FE6A700374FF6B6041125A2C
:102CA300D312503E1215F5E98E828F836006122CE3
:102CB300F3E48005122CF37401F07C8D7D148E8275
:102CC3008F83125415122441E9F5087015EE4F60F5
:102CD300097901EEFAEFFB121511A90802506F757D
:102CE30008CDAA088E828F83122CFAE960DF80EA6E
:102CF300E0240D12471922E0240C124719E0F912BF
:102D030014992274F6120AAAE9FEEAFF7A0F7B00ED
:102D1300121B65EA4B60198A828B83740CF0EEA355
:102D2300A3F0EF8A828B83A3F012509A7900802F4D
:102D3300EEF912153B8A088B09A808A909E849602E
:102D43001C88828983A3A3A3A3A3A3A3A3A3740619
:102D5300125D5EE0F9121451EEF9121517791002A3
:102D6300506FC082C08390036AE0640F7014EA4B13
:102D73006010900365E064086005E064047003126A
:102D83002D880245E8EAFCEBFD7A017B009003B055
:102D9300E0F9121CBB22C082C0837900EA241DF52E
:102DA30082EB12424724FD600B14600824FD60048B
:102DB30024FD7001090245E88E828F83A3A3A3A398
:102DC300A3A3A3A3A3122DCC2212428FFB1215F5AA
:102DD300E9228E828F83A3A3A3A3A3A3A3A3A312F6
:102DE3002DCC6402228E828F83A3A3A3A3A3A3A3C8
:102DF300A3A31245DF900356E0682212108D7F06CD
:102E0300020DA674F4120AAA74FD1210D88A088B54
:102E1300098A828B83A3A3E0F912153B8A0A8B0BE1
:102E2300AE0AAF0BEE4F7003022F0D8508828509A2
:102E330083A3E064F16030850882850983A3E0649D
:102E4300CD6024850882850983A3E0641A60188510
:102E53000882850983A3E064E9600C8508828509FB
:102E630083A3E064E170087900121511E9706C85A1
:102E73000882850983A3E0C0E0740212130CD0E03A
:102E83001245C3EEF0A3EF1238EE8518828519833D
:102E9300AA82AB8370051213B580031215DD740289
:102EA30012130CE064E970338E828F83122F19752D
:102EB3000A01780A121049750AE9780A121049E5DD
:102EC30008240CF582E5091233E01238CBFCA3E0A9
:102ED300FD8A828B831238E512108D8E828F83A335
:102EE300A3A3A3A3A3A3A3A3E0640270108E828F62
:102EF30083A3A3A3A3A3A3A3A3A37406F085088218
:102F0300850983A3A3E0F9121517121505900E2165
:102F1300122BD102349DE0F8A3E0F9E8FAE9FB2291
:102F230074F4120AAAEAFEEBFF7508008E828F83FF
:102F3300A3A3A3A3A3E060427508088E828F83A393
:102F4300A3A3A3A3A3A3A31244F28B0BEA450B6091
:102F53001075082C8E828F83A3A3A3A3A3E0D2E0D2
:102F6300F08E828F83A3A3A3A3A3E0540364016021
:102F73000302300C43081102300CEE24181234AA59
:102F83006033EE241A1234AA700F122DE87003A3D3
:102F9300E06970757508228070EE241BF582EF12CC
:102FA3003011241AF582EF1238F6EE2419125B075A
:102FB30012143F8054122DD57003750801122DE8A9
:102FC3007003A3E0697006E508D2E1F508E508603F
:102FD300158E828F83A3A3E07006E508D2E58004F3
:102FE300E508D2E6F508122DBB64017006E508D2A8
:102FF300E0F5088E828F83A3A3E0600D12301F6477
:10300300016006E508C2E0F508A9080234A21242ED
:103013003512301822E0FCA3E0FDEE2212422F12FB
:103023004267F91215E3E922C082C08379018A82DB
:103033008B83A3A3E0C394024001198A828B83A3E9
:10304300A3A3A3E0C39402400279008A828B83A3E3
:10305300A3A3A3A3A3A3A3A3E064F87003A3E0F42F
:1030630060458A828B83A3A3A3A3A3A3A3A3A3E003
:1030730064F97003A3E0F4602E8A828B83A3A3A375
:10308300A3A3A3A3A3A3E064FA7003A3E0F46017CC
:103093008A828B83A3A3A3A3A3A3A3A3A3E064FB19
:1030A3007003A3E0F4700279008A828B83A3A3A345
:1030B300E0F8900353E068600279000245E874F099
:1030C300120AAA74DE1210D8EAFEEBFF8E828F83F7
:1030D300A3A3A3A3E0600E900E1F12506660069098
:1030E3000E1F122BD1740312130CAC82AD838E828C
:1030F3008F83A3A3A31250E8125921E9600F74032D
:1031030012130CAA82AB831214B7E9700879011267
:1031130023F30233D5EE241B12423A741012130C1C
:103123001250B1740912130CE06021741A12130CBB
:10313300E0FD740412130CE0FC8E828F831254138F
:103143007901122585E96004790280C3740312139F
:103153000CAA82AB831214B1E9F50A740912130C99
:10316300E0702A90034DE060247422550A642260C3
:103173001C7442550A644270CF742012130C12332C
:10318300F3600A742012130C1233EC70BBE9A2E64D
:103193005041740312130CAA82AB831214A5E97075
:1031A30003023110742012130C12424A6403700F8D
:1031B300742012130CA3125058A3E0640D6014740E
:1031C3000312130CAA82AB83121607E9640170037E
:1031D3000233D5EE242C1233DD1237017003A3E042
:1031E30069701C7508007808121049780812104994
:1031F300EE242E125B071233F91238E512108D7488
:103203000912130CE070030232B21233F91254158F
:1032130012165B8A088B09EA4509700302334F745F
:103223000412130CE0F88E828F83A3A3E028F8A383
:10323300E03400F9E8240D1233E48A828B83A3A3DC
:10324300A3E068601CE88A828B83A3A3A3F0908821
:10325300231212E1850882850983A3A3A3A3121273
:10326300D57904E912130C1258FE2AF8A3E03400AE
:103273008882F583A3AA82AB83121B538A0C8B0D1E
:103283008C0E8D0F850882850983A3A3A3A3780CD5
:10329300120FC240030233D590881F780C12119588
:1032A300850882850983A3A3A3A3780C12127D90BA
:1032B3000365E064046008E0640960030233D5E554
:1032C3000AA2E5400302338DEE242E1234AA851898
:1032D30082851983F0EE242F1234AAC0E074011200
:1032E300130CD0E0F0EE24301234AAC0E0740212C2
:1032F300130CD0E0F0741412130CE0640170277403
:103303000E12130C124240EE24121234AA687003F8
:10331300A3E0697011740C12130C122DE270077480
:103323001412130CE4F0EE24241233DD120E5C7439
:103333000412130CAC82AD83740712130CAA82AB74
:10334300831213BB740412108D0233D59003AAE0C9
:10335300640160030232B2742012130C1233F3704F
:1033630009E50AA2E650030232B2741012130CE00C
:10337300F47003A3E0F4605AEEFCEFFD7403121340
:103383000CAA82AB831214C38048A2E65044742073
:1033930012130C125424701A741A12130CE06402E0
:1033A3007030740312130CAA82AB8379001215D107
:1033B3008020742012130C1233EC7016741A12133B
:1033C3000CE06404700C740312130CAA82AB831216
:1033D30015CB74220257D0EE240BF582EF1242353F
:1033E30022F582E91250CAF822125AE5E064072254
:1033F300124267640622EE242A1242321230182443
:10340300121242322274F4120AAAEAFEEBFF8C086B
:103413008D099006B2E0600F122DE87003A3E069F6
:10342300700512142D804F790012540812145D8A0E
:10343300828B83E58245836035A3A3A3A3A3A3E083
:103443005418602AE508241BF582E5091233E012BB
:103453000E60123ADE1233E0120E60EE2418125B95
:103463000712347B12146F740412108D80087900D4
:1034730012347B12143380278E828F83A3A3A3A3DA
:10348300A3A3A3A3A3123018240BF582EF12349441
:10349300223400F58312428FFB22740312108D7FB6
:1034A30004020DA6EE2417F582EF1250CA2274F718
:1034B300120AAA74F71210D8EAFEEBFF900365E034
:1034C3006403600DE064016008E064096003023591
:1034D3007B8E828F83A3E0707E7C007D007A027BEB
:1034E300001223EDEE2402FAEF123E4B12424090FB
:1034F30003561250B179531224237900123580E018
:1035030064096003123913851882851983740112C3
:1035130050879003657404F0740112130CAA82ABF4
:1035230083794A12241D740112130CAC82AD837A81
:103533005B7B0312240B9003561259177A0312393B
:103543001D900350E0A2E35004D2F08002C2F012B7
:103553005074122BCE801E8E828F83A3AE82AF83D4
:10356300FC7D007A037B101223ED8E828F83E0F9BA
:10357300123580E4F01214ED740902565890036377
:103583001234981213CD90036522C082C083900336
:1035930034125066701F900365E014600924FC60C8
:1035A3000A14600C800F90033C8032900338802D06
:1035B30090033A8028E84960089003351238C570B3
:1035C3000C8A828B83A3E0F91213C1801B9003350D
:1035D300123B7A7005121625800E9003D2125066A4
:1035E3006006125058120C250245E874F4120AAA18
:1035F30074FB1210D88A088B097A0F7B00121B65A3
:103603008A0A8B0BAE0AAF0BEE4F70030236F58EB0
:10361300828F831255E2795012241D850882850911
:1036230083A3E060030236DD900363E0F47003A339
:10363300E0F46034900363E064FE7003A3E0F4609D
:10364300278518828519831237017003A3E0696007
:1036530017850882850983A374EA1238FB7A637B92
:103663000379501224238072851882851983125A94
:10367300C61250B17A567B03795312241D90035618
:103683001250E21250B17A597B03794B12241D7AFE
:10369300587B0379E112241D90036AE0C3940F5011
:1036A30021900358E0C0E0740212130CD0E0F074D0
:1036B3000412130C7401F00412130CAA82AB8312CC
:1036C3002435750A00780A121049780A12104990B5
:1036D3000E43E0F91238DC12108D850882850983C8
:1036E3001236FAA3F09003657403F0EEFAEFFB12BF
:1036F300509A740502349FA3E08E828F8322125A5C
:10370300CAE068221247202274F5120AAA74D8125A
:1037130010D88A088B098A828B83A3A3A312426CD5
:10372300741512130CAC82AD838A828B83A3A3A37B
:10373300A3A3A3A3A31238CBFAA3E0FB1214F3743D
:103743001512130CE0706B850882850983A3A3A36C
:10375300A3A3A3A3A3E0C3940B40578E828F83A399
:10376300A3A3A3A3A3A3A3E064027046EE240B12B6
:1037730034AAF4703D900365E06402603AE06406A5
:10378300603590033412506660051238C5604F905F
:103793000365E064086005E064047016741712138F
:1037A3000CE0F9741C12130CAC82AD831254081292
:1037B30014F97428025FE4900334125066701F7585
:1037C300080078081210497808121049EE241012E4
:1037D30033DD125B1F123F331238E512108D8E82D8
:1037E3008F83125384123E5D124240740212130CF3
:1037F3001250B1EE240D1234AAC0E0740412130C5B
:10380300D0E01238EEF508A3E0F509740F7808123A
:10381300129B740512130CE508F0741912130CE0D3
:10382300C0E0740612130CD0E0F0741B12130CE00A
:10383300C0E0740712130CD0E0F0741612130CE0FE
:10384300C0E0740912130CD0E0F0741712130CE0EB
:10385300C0E0740812130CD0E0F0EE24101234AA66
:10386300C0E0740A12130CD0E0F0741A12130CE0C7
:10387300C0E0740B12130CD0E0F0742712130CE0A9
:10388300C0E0740C12130CD0E0F0741C12130CA9DA
:1038930082AA8389088A09750A0078081210417C74
:1038A300087D00741012130CAA82AB83124C1512FC
:1038B300108D851882851983AA82AB831213C702E0
:1038C30037B5123B80640122E0F98A828B83A3A37C
:1038D300A3A3A3A3A3A3A3E02290036312591B9062
:1038E30003591234981215B3740222F0EE240B120A
:1038F30050C7221250CAFA22F07A567B0379531228
:103903003906221224237A597B03794B122423226A
:10391300900363123498121655227B001223ED9004
:10392300035912591B7A047B001223ED22F0125B18
:103933002A2274F2120AAA74F81210D8EAFEEBFFD4
:103943008C0A8D0B890C851882851983AC82AD8313
:1039530075838775825C7408120F80F50DEEFCEF9A
:10396300FD851882851983AA82AB831252E5700301
:10397300750D019003B1803BEEFCEFFDE508240BD0
:10398300FAE50934001252E4601E85088285098332
:10399300A3A3E0650C7011850882850983E0650A9D
:1039A3007004A3E0650B6038E5082414F582E5098B
:1039B3001233E0123E55E50845096024E50DA2E007
:1039C30040B6850882850983E0650A7004A3E06533
:1039D3000B70D5850882850983A3A3E0650C70C8A5
:1039E300AA08AB097408022DFEC082C0839003B1FC
:1039F3000245E574F7120AAA9003B112428F8012AE
:103A0300EA2414F582EB1233E012426C121C07EE27
:103A1300FAEFFBEA4B70E99003B1E4F0A3F002562E
:103A23005B7F07020DA674F1120AAAEAFEEBFF8977
:103A33000A8C088D098E828F83E08C828D831244D9
:103A4300FCAE82AF83E0124CD5124C46C4124CD567
:103A5300123AE7E054038C828D83124C44A2E2E4D1
:103A6300338C828D83124C43131313541F124CD582
:103A7300124C42A2E7E4338C828D83A3A3A3A31247
:103A83003AE78E0C8F0D750E00780C1210417C08EE
:103A93007D00E508240712588A12108D1258F58EFE
:103AA3000C8F0D780C1210417C037D00E508240F68
:103AB30012588A12108DE50AC3940F40148E828F18
:103AC30083A3A3A3E0C0E0123ADE1233E0D0E08088
:103AD30006123ADE125D52F0023A24E5082412F58A
:103AE30082E50922A3A31245000EAF832274F412C8
:103AF3000AAA74F91210D8EAFEEBFF89089003347E
:103B0300125066600E123B7A7009EEFAEFFB121642
:103B13001F805F900363E06E7003A3E06F705374C4
:103B230001650860097A777B031252E570447A00D5
:103B33007B021240A48B0BEA450B7036900366128E
:103B430012E18518828519831212D590036CE0C0A7
:103B5300E0740412130CD0E0F0740512130C74011A
:103B6300F0740612130C1255E2121391E9609B12C2
:103B73001397740702349F123B80640222125AE6A1
:103B8300A3A3A3A3A3A3E02274F5120AAA8A088B12
:103B9300098A828B83A3AE82AF83E0F91213E58E89
:103BA300828F83E064EB600C850882850983A3E040
:103BB30064E17009850882850983A3E4F0122BCEA2
:103BC300750A01780A121049850882850983A3E0E2
:103BD300F508780812104979001238DC12108D129A
:103BE3001505025FE7EAF0A3EBF00245E874F6126D
:103BF3000AAA9003B4E0701B7C0079017A007B0071
:103C0300121535EA4B600C8A828B8312506660036F
:103C130012149302506FC082C08312408C401079FB
:103C2300FF12152FE9F89029C4E493C3985004793F
:103C330001800279000245E874F0120AAA8A088B0F
:103C430009890B750C008A828B83A3A3A3A3A3A367
:103C5300A3A3E0F912153B8A0E8B0FAE0EAF0F75BF
:103C63000A01EE4F6003023D19850882850983A38B
:103C7300A3A3A3A3A3125917850882850983A3A32A
:103C8300A3A3A3A3A3124A151254151215238A0C36
:103C93008B0DAE0CAF0DEE4F7003023E3C8E828F48
:103CA30083A3A3A3A3E4F0A3F0E508240B123E48E7
:103CB300E0C0E01233DAD0E0F01215FBEE240CF58D
:103CC30082EF12503AE508240EF582E50912423DCF
:103CD300EE240EF582EF1250AE750C01EE2406F8B9
:103CE300EF123E44547FF0A3E054FC125B7CE0549B
:103CF300046003023D9F900E25124A06740778085C
:103D03001211CE8E828F83A3A3A3A3A3A3E045089E
:103D1300F0A3E04509F08E828F83A3A3A3A3123EF1
:103D2300537407780812129BE5085407F508E50B4E
:103D3300607A8E828F83A3A3A3A3A3A3A3A3A37455
:103D430002124C47240D124715E0A2E2500B9003D8
:103D5300511250E2A3A31250B1E5087003023E11C1
:103D6300EE2406F8EF3400F9E8FAE9FB8A828B8344
:103D7300E0547FFCA3E054FCFDE50824FFF508E4D0
:103D830034FFF509740778081211CEEC4508F8EDF5
:103D93004509F98A828B831250B180728E828F8398
:103DA300A3A3A3A3A3A3E04480023D18E5087005E1
:103DB300750A0080598E828F83A3A3A3A3A3A3E0D4
:103DC30054206012121B5FEA547F245F8E828F831C
:103DD300A3A3A3A380238E828F83A3A3A3A3A3A3BD
:103DE300E05410600A121B5FEA540F240A80DD8E30
:103DF300828F83A3A3A3A37401F0A3E4123E5D7493
:103E03000412409B8B09EA4509700312502DE50CFF
:103E1300A2E050288E828F83A3A3A3A3125648F94E
:103E2300EEFAEFFB121529E9601212505C600312DF
:103E33004225EEFAEFFB121C07750A00A90A025786
:103E4300D31251A522FAE5093400FB8A828B83221F
:103E5300A3A3E0F508A3E0F50922123E612212585C
:103E6300A6A3A3A3A3A32274F4120AAA74F712109D
:103E7300D87E0012153BEA4B7003023F2C8A828BDB
:103E830083A3A3A3A3A3A3A3A3A3E0640660030242
:103E93003F2C8A828B83A3A3A3A3A3A3A3E0FF8ABC
:103EA300828B83124728E0C0E0740812130CD0E021
:103EB3001242601252EB1250B112154DEF540860CA
:103EC300668518828519831259177A007B001215AB
:103ED3001D8B0BEA450B704F900363124350122462
:103EE3004D7C007D007A007B0080288E828F8312B8
:103EF300424AF47003A3E0F4602D900363123F334E
:103F0300125415122141E9641A601C7C007D00EEF5
:103F1300FAEFFB12151D8A0A8B0BAE0AAF0BEE4F9D
:103F230070C979001224537E01EEF9740902349F9B
:103F3300123F3722E0FCA3E0FD8E828F8322C082F2
:103F4300C083EA4B70059003B580068A828B83A3F6
:103F5300A312415060258A828B83A3A3A3A3A3A3A7
:103F6300A3E0540860E5EC4D60158A828B8312420E
:103F73004A6C7003A3E06D70D280047A007B000268
:103F830045E874F2120AAAEAFEEBFF890A8C088D4F
:103F9300097A107B00121C01EA4B603F8A828B83F3
:103FA300A3A3A3A3A3A3A3A3A3E412424EA3E50A3B
:103FB300125AECA3123FE88A828B83A3A3A3A3E440
:103FC300F0A312425AA3F0125980EA240CF582EBB3
:103FD3001244EC123FE1A3A3F0A3F0022E01A3F0DD
:103FE3008A828B8322A3A3E508F0A3E509F0227458
:103FF300F4120AAAEAFEEBFF89088C0A8D0BEE4F36
:104003006055740165087014790112152FE9F89051
:1040130029BCE493C398500F7911806A740465082E
:10402300702F12408C40F18E828F83A3A3A3A3A38E
:10403300A3A3A3A3E5081244FCA31260718E828F8D
:1040430083A3A3E4F0A3F09003B51250666021802C
:104053000D7402650860D079C1802BE0F8A312507B
:10406300DBA3A312415088828983A3A370ED80034D
:104073009003B5EEF0A3EF12409B8B0BEA450B7058
:104083000312502D79000234A2790412152FE9F896
:104093009029B9E493C39822F01240A0227A207B9E
:1040A300009003B0E0F9121CCD22C082C083E9F86E
:1040B30079009003B5801D8A828B83A3A3A3A3A356
:1040C300A3A3A3A3E068600574FF687001098A8253
:1040D3008B83A3A312415070DE0245E874F7120AE2
:1040E300AAEA4B70059003B580068A828B83A3A34B
:1040F30012415060248A828B83A3A3A3A3A3A3A307
:10410300A3A3E06970E4EC60148A828B83E0240D3E
:10411300125908A2E240D380047A007B0002565B66
:10412300C082C0839003B580068A828B83A3A312C7
:10413300415060128A828B83A3A3A3A3A3A3A3A347
:10414300E06970E580047A007B000245E812349848
:10415300EA4B2274F2120AAA8A0A8B0B8C0C8D0D7D
:10416300750800750900EA450B602E9003B58006BB
:104173008E828F83A3A31241A3601EAC0CAD0DEE00
:10418300FAEFFB850A82850B83120C25E964017023
:10419300DFEEF8EFF988088909AA08AB09022E01B6
:1041A300E0FEA3E0FFEE4F2274F7120AAA9003B5D4
:1041B3001242407C007D00800DE8FCE9FD88828985
:1041C30083A3A3124240E8496030EA687002EB69B6
:1041D30070E79003B5125415E86A7002E96B8882A0
:1041E3008983A3A370081242409003B58009124249
:1041F300408C828D83A3A31250B102565B74F712D5
:104203000AAAEAFEEBFFEE4F60151215471242723F
:1042130012505C6003124225EEFAEFFB121C0702F8
:10422300565BEE240C12423212428722EE241DF515
:1042330082EF3400F58322F582EF1242351245DF17
:1042430022F582EF124235124267221242522212A3
:104253005AF4A3A3A3A322124252A3A322123FE21E
:1042630012426722125ADFE022E0FEA3E0FF228E11
:10427300828F83E0241C1247191242878E828F8318
:104283001242872212428FFB121C0722E0FAA3E09C
:1042930022C082C083EAFCEBFDEC4D7004790580FB
:1042A30044EC24FBF582ED34FF1250647007124294
:1042B300EBE0F46005121B6B80E39003B0E0C0E019
:1042C3001242EBD0E0F09029C0E493F97AB77B0374
:1042D300121B95E96401700B7A007B20125031792F
:1042E30000800279040245E8EC24FFF582ED34FFF7
:1042F300F5832274F4120AAAA2AFE433F508C2AF1D
:104303009003B71241A36038EE24FBF582EF34FF2C
:104313001250647A007B209003B060051250348001
:1043230005E0F9121BA1E4F50AF50B780A12104512
:10433300EEFCEFFD7AB77B03121B8F740212108D14
:10434300E508A2E092AFEEFAEFFB0234A212591B8A
:10435300851882851983AA82AB832274F2120AAA72
:1043630074FC1210D8EAFEEBFF750AFE750BFF1200
:10437300150BE9600579110244E1EE24151234AA04
:104383006037900E39E0C43354E0F8E0333354FC23
:1043930048C0E0EE24151233DDD0E01244FC124491
:1043A300F28B09EA45096011750AFFEE240F1234F6
:1043B300AA44041250BFD2E0F08E828F83122DC61E
:1043C3006006EE24121244E9EE24131234AA70108C
:1043D3009029BFE493C0E0EE24131233DDD0E0F064
:1043E3008E828F83E0A2E750045403801CEE2414D2
:1043F3001234AA7015900342E0C0E0EE2414123385
:10440300DDD0E0F0900342E004F0EE24111234AA70
:10441300640170169006A9E0600D90034DE0700AE8
:104423008E828F83E070031244E68E828F83E06472
:10443300017013EE240B12424464027009EE240F40
:104443001234AA4440F0851882851983AC82AD8367
:10445300EEFAEFFB1215718A088B0974FE650A7078
:104463000374FFF470098E828F83A3A3125896EA14
:10447300450960668E828F83E0C0E0740112130CDD
:10448300D0E0F0740212130C125984740112130C4D
:1044930085820C85830D780C121045EE240F1233A0
:1044A300DD120E60EE240E1234AAF50C780C1210F5
:1044B30049900356120E60740712130CE0F9AC0A0C
:1044C300AD0B12156B740712108DE9FE74106E702C
:1044D3000BAA08AB09121C0780027E10EEF97404C4
:1044E300022DFEEE2411F582EF124235E4F022A3F1
:1044F30012349879FF1224AD2212450022F08E82E5
:104503008F83A322C082C08374DE1210D88A828B69
:1045130083A3A3A3A3124240740E12130CE8F0A3C7
:10452300E91245D6740C12130C1245CF240DF582F3
:10453300EB1234ADC0E0741A12130CD0E0F0125732
:10454300E3EB12423D742012130C1245CF2415F5F0
:1045530082EB1234ADC0E0740812130CD0E0F0EA21
:10456300241CF582EB12423D741212130C1245CF38
:104573002411F582EB1234ADC0E0740912130CD090
:10458300E01245C374FFF0740112130C74FFF0744E
:104593000212130C74FFF0908823120E5C74041241
:1045A300130CAC82AD83740712130CAA82AB831273
:1045B30013BB740412108D7900742212108D8025A0
:1045C3001245C722F085188285198322E8F0A3E9F2
:1045D300F0EA22123FE2A31245DE22A3E0F8A3E0B1
:1045E300F922125415D083D08202102574EC120ADA
:1045F300AA74EE1210D88A128B13ECFEEDFF890910
:10460300742612130C125896742812130CE0F5102A
:10461300742912130C12470A742B12130CE0F50EB3
:10462300A3E0F50F7508107A1E7B00121C017402BB
:1046330012130C12503E740212130C1250667003C4
:10464300024703851882851983AA82AB83795012A6
:104653004F19125415740212130C124728A3125047
:104663003E741012130C126073740212130CE024C4
:104673000B1247157402F012130C1247287402F040
:1046830012130C125AD7125984740212130C1254B7
:104693002AE509F0740212130CE0240C124715E505
:1046A30010F0740212130C124712E512F0A3E51373
:1046B300F0740812130CE50CF0A3E50DF0740A1264
:1046C300130CE510F0850E82850F83C082C08374BE
:1046D3000D12130CAC82AD83D083D0827403120FFE
:1046E30080F9740212130CAA82AB83121511E964C8
:1046F3000170057508008008740212130C12422B16
:10470300A90874120258ADE0F50CA3E0F50D22E000
:10471300241C12471922F8A3E0124720223400F97F
:10472300888289832212541DA3A3A3A3A32274EE18
:10473300120AAAEAFEEBFF8C088D098E828F83A3EF
:1047430074081250FAE060088E828F83A37410F00D
:104753001234A760098E828F83A3E02408F0EE242D
:10476300151234AA60088E828F83A3E004F08E8230
:104773008F83A3A3A3A3A3A3E060198E828F83A334
:10478300A3A3A3A3A3A3E0C3332402F88E828F833E
:10479300A3E028F0EE24111234AA6005750B0E80F5
:1047A30003750B008E828F83A3C082C083EE240D1A
:1047B3001234AAD083D082F8E028250B8C828D8313
:1047C300F0EE24111234AA6005124C2528F0850856
:1047D30082850983E0C39475400975080075090053
:1047E300024913E0FA7B00125A327003024913EEB6
:1047F300FAEFFB121577EA85088285098312503F89
:10480300EE2402F8EF123707124A0D12494FF0EE69
:1048130024040808EF123707124E4FA312494FA37F
:10482300A3F0EE2413124935F0EE2414124935A3F4
:10483300F0750A08EE24161234AA6010EE2418123A
:104843005914E5082408125B15750A101234A76081
:1048530016EE241A125914850A0CE508250C125B6E
:10486300157408250AF50A8E828F83A3A3A3A3A335
:10487300A3E06059EE2407F510EF3400F51185101D
:1048830082F583E0C0E012491C1233E0D0E0124904
:104893003FE0C0E012491C1233E0D0E012493FA3CD
:1048A300124928121041851082851183E0C333FC1D
:1048B300E433FD850A0CE508250C12588A12108D85
:1048C300851082851183E0C333250AF50AEE24158A
:1048D3001234AA600BC0E012491C1233E0D0E0F09E
:1048E3001233DA124928121041EE240D1234AAFCB5
:1048F3007D00850B0A8E828F83A3E0F8E50828F8F4
:10490300E5093400F9E8250AFAE912588D12108DE9
:10491300AA08AB097F0A020DA6850A0CE508250C37
:10492300F582E50922E0F50CA3E0F50D750E00789C
:104933000C22124232124959A3A3A322F0050A8E74
:10494300828F83A3A3A3A3A3A3A3A322A3A3125BE3
:1049530080A312495922124E53A3A32274F6120ABA
:10496300AA8A828B83E0FC900353124A067402786E
:10497300081211CEEC4508FCAD09EA2412124A00D4
:10498300740678081211CEEC4508FCED4509FDEAE2
:104993002415F582EB1234AD6004780180027800AF
:1049A300E4C8F9ED49FDEA2411F582EB1234ADF5C3
:1049B300088809740978081211CEED4509FDEA2427
:1049C30016124A00740B78081211CEED4509FDEA60
:1049D3002417124A00740C78081211CEED4509FD14
:1049E3008A828B83A3A3A3A3A3A3124A06740A7880
:1049F300081211CEECFAED4509FB02506FF582EB7C
:104A0300124235E0F50875090022E0850882850920
:104A13008322A3E0F98508828509832274EE120AB2
:104A2300AA8A0A8B0BECFEEDFF750F01E9C394080C
:104A330050057900024C128E828F83E9F0124E7872
:104A4300E96003750F00124E5C8E828F83124EA6AF
:104A5300EE1257E4EF124E9BC0E0EE24111233DD49
:104A6300D0E0124E93C0E0EE24121233DDD0E012F8
:104A730044FC740812589EA3A3A3E06015124E448D
:104A8300EE2413F582EF1250AE8E828F83A3E024BF
:104A930008F08E828F83A3A3A3A3A3A3A3A3E060A1
:104AA300218E828F83A3858208858309124E87EE28
:104AB3002415F582EF1250AE850882850983E02420
:104AC30008F08E828F83A3A3A3A3A3E0601A8E8230
:104AD3008F83A3858208858309124E6B8E828F8311
:104AE300A3A3A3A3A3124C37EE24191244E9EE2483
:104AF3001B1244E9A31250F2E07003024BA6EE240A
:104B030019F8EF3400F98E828F83A3858208858399
:104B130009E0FAE50A2AF582E50B1234AD888289A9
:104B230083124C37FAE50A2AF582E50B1234ADC03D
:104B3300E0EE241A1233DDD0E0124C3788828983E9
:104B4300E06059F89029B8E493C398500575110CA7
:104B53008008EE24191234AAF5118E828F83A3E004
:104B6300F8E50A28F50CE50B124C1B121041E51170
:104B7300C333FCE433FD7A897B0C124C1512108D80
:104B8300EE241B1233DD7489F0A3740CF0E511C31A
:104B930033F8850882850983E0288006EE241812FD
:104BA3005D4FF08E828F83A3E0F88E828F83E0C304
:104BB300985003024A35A3E0FA8A08E50A2508F863
:104BC300E50B3400F9EE241DF582EF1251BA124CB5
:104BD30047C39AC0E0EE24171233DDD0E01250B77A
:104BE300602BEE2417F8EF3400F9880889098882CE
:104BF300F583E024F212519B240EFAA3E03400FB68
:104C03008882898312503E124C25C398F0A90F0263
:104C13004917121B3B7403223400F50D750E0078FF
:104C23000C2290034EE0F912257FE9F8850882856E
:104C33000983E022F0850882850983E004F022A33A
:104C4300A3A3A3A3F08E828F83E02274F4120AAA93
:104C53008A088B09EA124CDCF0EA1313543F124C16
:104C6300D5A3A3A3F0EAC41313124CDCA3A3F0EB64
:104C7300124CCE124CE67409780A12129B124CCCD9
:104C8300124CE5740A780A12129BE50A5401C0E03B
:104C9300EC2418F582ED1233E0D0E0124CEB740BE8
:104CA300780A12129B124CCCA3124CE5740C780AAE
:104CB30012129B124CCCA3A3A3A3A3A3A3A3F0748C
:104CC3000D780812129B02300CE50A54018C828D78
:104CD3008322540F8C828D832254038C828D83A371
:104CE300A322A3A3A3A3A3A3F08A0A8B0B22C082AC
:104CF300C08379008A828B83A3A3A3A3A3A3E09099
:104D0300034D600FE070228A828B83A3A3E07019A6
:104D1300098016E060138A828B8312540C90035629
:104D2300E06A7003A3E06B70E70245E874F0120ACF
:104D3300AA8A0A8B0B890C8C088D09124E78124EA5
:104D43005C850882850983124EA6E5081257E4E5BF
:104D530009124E9BC0E0E5082411F582E5091233E0
:104D6300E0D0E0124E93C0E0123ADE1233E0D0E01E
:104D73001251C274081251DB6011124E44E508242B
:104D8300131251B61251C2E02408F0850882850936
:104D930083A3A3A3A3A3A3A3A3E06017850882858A
:104DA3000983A3124E83E50824151251B6124C470A
:104DB3002408F0850882850983A3A3A3A3A3E06045
:104DC30019850882850983A3AE82AF83124E6B8552
:104DD3000882850983124C4204F0AA08AB09121514
:104DE30089E9F50D7056850882850983A3A3A3A3DA
:104DF300A3A3124E4F7014E0FA8A0EE50A250EF8AB
:104E0300E50B1250A3E50CC39A8021124E83E824CC
:104E13000EF8E91250A390034EE0F912257F8E821B
:104E23008F83E0F8E50CC39824F2C399C0E0E5084A
:104E33002417F582E5091233E0D0E0F0A90D0257FB
:104E4300D3E50A2408F8E50B3400F922124E532265
:104E5300E0850882850983A322850A82850B83A3C3
:104E6300A3124EBCE0F9EA22E0F8E50A28F582E550
:104E73000B1250CA228A828B831257D812158322AF
:104E8300AE82AF83E0F8E50A28F8E50B3400F92297
:104E9300124ECFA3A3A3E022124235E8124EC8A3B9
:104EA300A3E022A3A3A3A3A3A3A3A3A3124EC81265
:104EB3004EBCA3A3E0F9EAF822E0FA850A82850B47
:104EC30083A3A3A322F0A3E9124ECF22F0850A8283
:104ED300850B83A3A3A3A322C082C0837AC57B03CC
:104EE30079E212241D7AC57B030245E8C082C083A0
:104EF3009003560245E5C082C08374FE1210D88524
:104F03001882851983AA82AB83794B124F191254E5
:104F13001574020245BE12241D8518828519832249
:104F2300C082C083794A12241D0245E874F6120A2E
:104F3300AA9003CDE0FE04F0EEF912153B8B09EACB
:104F4300450970EDEE60EAF902506F74F0120AAA97
:104F5300EAFEEBFF8C088D09890A741012130CE02A
:104F6300F50B741112130CE0F50C12165BEA4B707F
:104F730013E50C7042A90AAC08AD09EEFAEFFB1277
:104F83001673806EE50A6021EA2402F582EB12347F
:104F9300AD850A082508F8E4340013E813F0700916
:104FA3008A828B83A3A37401F0E50C6045E50B7043
:104FB300068A828B83E4F07401650C7035E50B90EF
:104FC30003D47004E4F0802AE004F0900E26E0F8A5
:104FD3009003D4E0C398401AE4F0900359E06E7054
:104FE30003A3E06F700CEEFAEFFB79011213DF12EB
:104FF3004FF80257D37A017B009003B0E0F9121CFB
:10500300C722C082C08374016A7001EB70077A0102
:1050130012502F8012900E1D12503EEA4B60051263
:105023002D888003124FF80245E87A207B00900315
:10503300B0E0F9121B9B223400F583EAF0A3EBF0F6
:1050430022C082C083900E1F023BE8C082C08390BF
:105053000E21023BE8125AE622EE240CF582EF34CD
:1050630000F5831245DFE8492212108D7F02020DFD
:10507300A6A2F0E4338518828519831250907952E1
:1050830012242322125090794212242322F0AA825E
:10509300AB8322AA08AB099003B0E0F9121B71227B
:1050A3003400F9E508241DF582E509124235E8F0DC
:1050B300A3E9F0221258A2A3A3E022A3F0EE241541
:1050C3001250C722F582EF3400F583E0221250D448
:1050D300223400F583E0F8A3E0F98882898322E093
:1050E300F81250E822A3E0F98E828F83A3A322F063
:1050F300EE241812423222F0EE24161242322274A7
:10510300F4120AAAEAFEEBFF7A007B04124FFC12A8
:1051130051911250B19003657409F01215958A08E4
:105123008B09AC08AD09EE24131233DD12541512AA
:1051330052E5640170487A0F12518460418A828B70
:1051430083740212519BFAA3E0FB8A828B83A3E050
:10515300FC8A828B83A3A3E0FBEC85088285098309
:10516300A3A312503F88828983125419124A0D1245
:1051730050BEFAA3E0FB794A12242312509602345C
:10518300A27B00121B658A088B09EA45092290035A
:10519300361245DF900E2122F0EE241DF8EF125156
:1051A300A522124720E0221251AE223400F5837467
:1051B30001F022F582E509124235E8F0A3E9221253
:1051C30051C6221251CA22F0850882850983A3227F
:1051D3001251CAA3A3A3A3221251D3A3A3E0221261
:1051E30055EC1215E922EE2417F582EF1251AE1297
:1051F3001595EE241A124232EAF0A3EBF02274F46E
:10520300120AAA74F31210D88908EAFEEBFF7C0D88
:105213007D007900851882851983AA82AB83121BCE
:1052230047EE241D1233DD125AD7A3E0F8741F583A
:10523300600A79011223F379000252DCE8A2E550F7
:1052430008740C12130C7401F0E8A2E75008740BF5
:1052530012130C7401F0E8A2E6740A500812130C3E
:105263007401F0800812130CE064017005EE24133E
:105273008003EE2415125914740212130CAA82AB84
:105283008312240B1233DA1252EA1250B1740A1247
:10529300130CE064017033122DBB703B1215A18A0D
:1052A3000A8B0BA80AA90BEE240B1234AA6870030D
:1052B300A3E0697022121595EAFCEBFD7402121348
:1052C3000CAA82AB831252E5600D8518828519837F
:1052D300AA82AB831213D9A908740D02349FEEFA84
:1052E300EFFB122405E922E01252EF22F8A3E0F9C2
:1052F3008518828519832274F6120AAA74F3121090
:10530300D88A088B09ECFEEDFF7C0D7D00790085C2
:105313001882851983AA82AB83125C7CA3A3A3A3FF
:10532300A3A3A3A3A312538412538DF8A2E5500899
:10533300740B12130C7401F0E8A2E75008740A12FC
:10534300130C7401F0E8A2E6EE5004241380022447
:1053530015125914740212130C125376A3A3E0C04E
:10536300E0740C12130CD0E01255E41213D3740D35
:1053730002506CAA82AB8312240B850882850983B1
:1053830022E01252EFE8F0A3E922F012422F125A60
:10539300DBA3E02274F7120AAA74E11210D8EAFE22
:1053A300EBFF8E828F83125419A3A3A3E0A2E050D4
:1053B300518E828F83122F1B8A828B83A3A3A3A375
:1053C300A3A3E054FE1254318A828B8312542AE041
:1053D300F98A828B83E0241CFAA3E0123E4B125419
:1053E3001512158FE9701B741D12130C12542470BF
:1053F30011851882851983AC82AD83EEFAEFFB1217
:1054030015D70256568E828F83A3A3A3A3A3A3A368
:10541300A3A31234982212541D22125ADFA3A3A36A
:1054230022124267640422E0241B12471922124508
:10543300C7AC82AD8322E9F87900740468600A740A
:105443000A68600574036870010902102574F61276
:105453000AAA8A828B837420F0A3A37401F0121327
:10546300858A088B09AE08AF09EE4F60108E828FD4
:10547300837401F09003A3E070031251E9EEFAEF95
:10548300FB02506FC082C0839003B97401F0E9A29C
:10549300E350037403F0E9A2E15004E0D2E2F00226
:1054A30045E874F6120AAA79007C008A088B097809
:1054B30008120D60F8FF07D854D654D654D654D6E4
:1054C30054CF54D354D854CC540C80097C04800555
:1054D3000C80F67C089003B9E05C6003098003EC60
:1054E30060010902506F74F6120AAA8A828B83E064
:1054F3007012A3125066600C8A828B8312541412AA
:1055030025A980047A007B0002506F74F5120AAA61
:1055130074F31210D88A088B09ECFEEDFF750A129A
:10552300EA4509700579000255DD900356E06508E8
:105533007004A3E065097014121595EAFCEBFD12E3
:1055430052E17005750A018003750A00851882858A
:105553001983E4F00412130CE508F0A3E5091255CE
:10556300E4121349E96027740312130CAA82AB8374
:1055730012132BE964017016750A01740312130CDC
:10558300AC82AD831252E16021750A00801C741253
:10559300650A70169003A2E06402700EEEFCEFFD44
:1055A300AA08AB09121361E970DFEEFCEFFDAA084C
:1055B300AB09121661E9F8740A687005750A01806F
:1055C3001774A0687012EEFCEFFDAA08AB0912165F
:1055D3006DAA08AB0912167FA90A740D025FE47461
:1055E300021255E8221255EC221245C7AA82AB8358
:1055F3002274F7120AAAEAFEEBFF8E828F83A3A31B
:10560300A3A3A3A3A3A3E06015EE24151233DD1215
:105613003488121601E964017004790180258E82B1
:105623008F83A3A3A3A3A3A3A3E06015EE24131264
:1056330033DD125648FAA3E0FB121601E964016058
:10564300D979008013123F37A3A3A3A3A3A3A3A3D2
:10565300A3E022741F12108D7F01020DA674F012B5
:105663000AAA74FD1210D88A088B09ECFEEDFF8993
:105673000B741312130CE0F50C750A017401121369
:105683000C7404125B0F6048E50C601DEA2417F5E7
:1056930082EB125D52125AFD8A828B83E0D2E7F0CD
:1056A300EA2414F582EB1244EC1257E3EB1250D0C8
:1056B3007403126075EE88828983A3A3F0EF888256
:1056C3008983A3A3123FE1123FE812137FE9F50A8E
:1056D300A90A74030257D074EC120AAA74F51210C3
:1056E300D88A0A8B0B890C8C0E8D0F741F12130C26
:1056F300E0F50D742012130CE0F510A3E0F5117E14
:1057030001EE12130C740AF0E97007E50DC333249C
:105713000AF01258B570030257B71258CA7409F049
:10572300A3E50CC43354E0450D1258DCE50C702D91
:105733007C008023ECC333F8E433F9E51028F8E563
:105743001139F9888289831257C488828983123672
:10575300FAF0A30EAF830CECC3950D40D7E50824F4
:1057630017F582E5091251AA121595E508241AF5D1
:1057730082E50912503A740312130CAC82AD83AA6A
:105783000AAB0B121331E96019E5082416F582E51B
:10579300091257BE12130CA882A983E50824181214
:1057A30050AA850882850983126071AA08AB091281
:1057B300137FE9FEEEF9740B0258AD1251AE740378
:1057C30022E08E828F83F0A3AE82AF832212108DEC
:1057D3007F08020DA612428FF9EA2400E439FB2266
:1057E300EA240BF5822274EE120AAA8A0C8B0D8925
:1057F3000E8C088D09741212130CE0F50F7413123A
:10580300130C1258969006181250666077E50FC372
:1058130033F8E433F9E8240EFAE93400FB121B658C
:105823008A108B11AE10AF11EE4F60588E828F83AA
:1058330074D4F0A3A3E50CF0A3E50D12589EE50E76
:10584300F0AC08AD09EE2405FAEF125B18EE240D57
:105853001233DDE50FF0850A08850B09750A007818
:1058630008121041E50FC333FCE433FDEE240EFAB6
:10587300EF12588D12108DEEFAEFFB900618125AA4
:10588300D7120C25024917FAE5093400FB121B3B1A
:10589300740322E0F50AA3E0F50B221258A22212A8
:1058A30058A622124500A3A3A32212108D7F0C0237
:1058B3000DA6851882851983AA82AB831215E98AFE
:1058C300088B09EA450922EA240BF582EB1250CA38
:1058D300FEA3E0FF8E828F8322F0A3AE82AF83AC60
:1058E3000EAD0FEEFAEFFB1258EE2212240B1258F4
:1058F300F522EE2408FEEF3400FF22E0FA8E828FB9
:1059030083A3A3E022FEA3E03400FF8E828F83E013
:105913002212423212591B22E0FCA3E0FD22123470
:105923009812157D2274F6120AAAEAFEEBFF900381
:10593300BA801388828983E06E7003A3E06F603AB4
:1059430088828983A3A312506670E87A047B0012CD
:105953001C018A088B09A808A909E849601C8882E8
:1059630089831259849003BA12541588828983A3B8
:10597300A312503E9003BA1250B102506F8A828B29
:1059830083EEF0A3EFF02274F4120AAA7E009003D0
:10599300BA80070E88828983A3A312506670F4EE3F
:1059A300C333FAE433FB125A32607E7F009003BAAA
:1059B300802488828983125917EFC333FAE433FBB7
:1059C300E5082AF582E5093BF583ECF0A3EDF00F3A
:1059D30088828983A3A312506670D79003AB122DDC
:1059E300F57003A3E06978087019121045EEF50A03
:1059F300780A1210497C777D0379009003AB125A21
:105A03003D801A121045EEF50A780A1210497C7788
:105A13007D0379009003AB1254151216137403120D
:105A2300108DAA08AB09121C071213970234A21295
:105A33001C018A088B09EA450922123498121619A7
:105A430022C082C08380128A828B83A3A312424026
:105A53009003BA1250B1121C079003BA124150704E
:105A6300E60245E874F6120AAA90036312426C90A8
:105A730003CE125AC61250B17ACE7B037950122448
:105A8300239003CE123014FAEFFB1216799003CE53
:105A930012426C90061A12506660257A067B001239
:105AA3001B65EA4B601A8A828B8374D5F0A3A3E447
:105AB300125AEC04125AFD90061A125AD7120C25E8
:105AC30002506F125ACA22E0F8A3E0F9900363224E
:105AD3008E828F83125ADB22125ADF22E0F8125A87
:105AE300E522A3E0F583888222125AF022125AF4A7
:105AF30022F08A828B83A3A3A322125AF0A3EEF08F
:105B0300A3EFF022F582EF1250CAF9221251E2EA12
:105B13004B22FAE5093400FB12240B221250E9A3AD
:105B2300A3A3A3A3A3A3229029BAE4932401F8E493
